:100000000C9485000C94AD000C94AD000C94AD00E4
:100010000C94AD000C94AD000C94AD000C94AD00AC
:100020000C94AD000C94AD000C94AD000C94AD009C
:100030000C94AD000C94AD000C94AD000C94AD008C
:100040000C945D090C94AD000C94CD090C94A70997
:100050000C94AD000C94AD000C94AD000C94AD006C
:100060000C94FF090C94AD002D454550524F4D2086
:10007000557064617465642D0053657420416C6132
:10008000726D2046696E6973680053657420546907
:100090006D652046696E697368200053657420445D
:1000A0006174652046696E69736820000000000075
:1000B000240027002A0000000000250028002B0053
:1000C00000000000230026002900040404040404A6
:1000D00004040202020202020303030303030102F7
:1000E00004081020408001020408102001020408C6
:1000F00010200000000800020100000304070000B7
:100100000000000000001A0BD11511241FBECFEF14
:10011000D8E0DEBFCDBF23E0ACEDB1E001C01D9261
:10012000A336B207E1F711E0A0E0B1E0E8E9F4E3BB
:1001300002C005900D92AC3DB107D9F710E0C4E8BC
:10014000D0E004C02197FE010E944718C338D107B0
:10015000C9F70E94870B0C943F1A0C94000083305F
:1001600081F028F4813099F08230A9F00895873029
:10017000A9F08830C9F08430B1F4809180008F7D7F
:1001800003C0809180008F7780938000089584B5AC
:100190008F7784BD089584B58F7DFBCF8091B000AB
:1001A0008F778093B00008958091B0008F7DF9CF54
:1001B000CF93DF93282F30E0F901EE50FF4F849169
:1001C000F901E252FF4FD491F901E653FF4FC49178
:1001D000CC23A1F081110E94AF00EC2FF0E0EE0FD4
:1001E000FF1FE054FF4FA591B491EC91ED2381E006
:1001F00090E009F480E0DF91CF91089580E090E0F5
:10020000FACF1F93CF93DF93282F30E0F901EE5000
:10021000FF4F8491F901E252FF4FD491F901E65367
:10022000FF4FC491CC23A9F0162F81110E94AF007B
:10023000EC2FF0E0EE0FFF1FEA54FF4FA591B491B1
:100240008FB7F894EC91111108C0D095DE23DC93A0
:100250008FBFDF91CF911F910895DE2BF8CFCF9301
:10026000DF9390E0FC01E252FF4F249186539F4FB1
:10027000FC0184918823C9F090E0880F991FFC014C
:10028000E455FF4FA591B491FC01EA54FF4FC5918D
:10029000D49161110DC09FB7F8948C912095822361
:1002A0008C938881282328839FBFDF91CF91089565
:1002B000623051F49FB7F8943C91822F809583234C
:1002C0008C93E8812E2BEFCF8FB7F894EC912E2BE7
:1002D0002C938FBFEACFCF93DF93CDE3D3E061E0E0
:1002E00089810E942F0160E089810E94010161E003
:1002F00088810E94010161E089810E94010160E022
:100300008981DF91CF910C942F01CF93DF93CDE3BF
:10031000D3E061E089810E942F0160E088810E9422
:10032000010161E089810E94010161E088810E94F0
:10033000010160E088810E94010160E08981DF9114
:10034000CF910C942F0160E080913E030E942F0119
:1003500061E080913D030E94010180913E030E9473
:10036000D8000197D1F360E080913D030C94010126
:100370003FB7F89480918E0290918F02A0919002E5
:10038000B091910226B5A89B05C02F3F19F00196A8
:10039000A11DB11D3FBFBA2FA92F982F8827BC01DF
:1003A000CD01620F711D811D911D42E0660F771F07
:1003B000881F991F4A95D1F708958F929F92AF9207
:1003C000BF92CF92DF92EF92FF924B015C010E94AD
:1003D000B8016B017C010E94B8016C197D098E097E
:1003E0009F09683E734081059105A8F321E0821AB8
:1003F0009108A108B10888EEC80E83E0D81EE11C60
:10040000F11C81149104A104B10429F7FF90EF902D
:10041000DF90CF90BF90AF909F908F900895AF9254
:10042000BF92CF92DF92EF92FF920F931F93CF93E1
:10043000DF936C017B018B01040F151FEB015E0143
:10044000AE18BF08C017D10759F06991D601ED91D8
:10045000FC910190F081E02DC6010995892B79F777
:10046000C501DF91CF911F910F91FF90EF90DF9029
:10047000CF90BF90AF900895FC01538D448D252FF0
:1004800030E0842F90E0821B930B541710F0CF962E
:10049000089501970895FC01918D828D981761F060
:1004A000A28DAE0FBF2FB11D5D968C91928D9F5F77
:1004B0009F73928F90E008958FEF9FEF0895FC0156
:1004C000918D828D981731F0828DE80FF11D858D09
:1004D00090E008958FEF9FEF0895FC01918D228D9C
:1004E000892F90E0805C9F4F821B91098F73992721
:1004F000089582E992E00E946D0221E0892B09F4BF
:1005000020E0822F089580E090E0892B29F00E945E
:10051000790281110C9400000895FC01A48DA80FAC
:10052000B92FB11DA35ABF4F2C91848D90E0019635
:100530008F739927848FA689B7892C93A089B18955
:100540008C91837080648C93938D848D981306C0F6
:100550000288F389E02D80818F7D80830895EF925A
:10056000FF920F931F93CF93DF93EC0181E0888F6D
:100570009B8D8C8D98131AC0E889F989808185FF3D
:1005800015C09FB7F894EE89FF896083E889F989DF
:1005900080818370806480839FBF81E090E0DF91E1
:1005A000CF911F910F91FF90EF900895F62E0B8D34
:1005B00010E00F5F1F4F0F731127E02E8C8D8E11EF
:1005C0000CC00FB607FCFACFE889F989808185FF56
:1005D000F5CFCE010E948D02F1CFEB8DEC0FFD2FF8
:1005E000F11DE35AFF4FF0829FB7F8940B8FEA8911
:1005F000FB8980818062CFCFCF93DF93EC01888D20
:100600008823B9F0AA89BB89E889F9898C9185FD8D
:1006100003C0808186FD0DC00FB607FCF7CF8C911B
:1006200085FFF2CF808185FFEDCFCE010E948D0244
:10063000E9CFDF91CF910895089520910302260F0D
:100640003327331F21323105ECF420912702FC01BE
:1006500090E080E0243069F082E00895A0910302E8
:100660002191AC014D515E4FA40FB52FB11D2C93BC
:100670000196861798F380910302680F6093030236
:1006800080E0089581E0089508958FEF9FEF089529
:100690008FEF9FEF08958091DC0190E09195819517
:1006A00091090895CF93DF93CB01EA01642F0E9453
:1006B0001D03CE01DF91CF910895CF93DF931F9259
:1006C000CDB7DEB7698361E0CE0101960E941D03BC
:1006D00081E090E00F90DF91CF91089590E080E06D
:1006E00008958091850290918602489724F0109297
:1006F0008602109285028091830290918402CC97A9
:1007000024F01092840210928302809181029091D1
:100710008202CC9724F01092820210928102809182
:10072000630290916402089724F010926402109280
:10073000630280917F0290918002809724F0109252
:10074000800210927F0280917D0290917E020D972F
:1007500024F010927E0210927D0280917B02909193
:100760007C028F3E974034F080ED97E090937C02BE
:1007700080937B0208951F93CF93DF9360E0809175
:100780003E030E942F01C7E0D0E010E061E08091BD
:100790003D030E94010180913E030E94D8009927E9
:1007A0000C2E01C0880F0A94EAF7182B60E08091A4
:1007B0003D030E940101219748F7812FDF91CF91DE
:1007C0001F9108950F931F93CF93DF93082F162F38
:1007D000D42FC8E06D2F661F6627661F802F0E94EA
:1007E0000101DD0F61E0812F0E94010160E0812F96
:1007F0000E940101C15071F7DF91CF911F910F91BC
:1008000008951F93CF93DF93182FCDE3D3E061E0DA
:1008100089810E942F0161E089810E94010161E0CC
:1008200088810E94010160E089810E94010160E0ED
:1008300088810E940101412F68818981DF91CF91D8
:100840001F910C94E2031F93CF93DF93182FCDE3F6
:10085000D3E061E089810E942F01412F6881898165
:10086000DF91CF911F910C94E203EF92FF920F93CF
:100870001F93CF93DF93CDB7DEB728970FB6F894C9
:10088000DEBF0FBECDBF80914603882309F49BC015
:1008900084EE8093BC008091BC0087FFFCCF80ED8C
:1008A0008093BB0084EC8093BC008091BC0087FFE8
:1008B000FCCF1092BB0084EC8093BC008091BC0004
:1008C00087FFFCCF84EE8093BC008091BC0087FF43
:1008D000FCCF81ED8093BB0084EC8093BC008091C1
:1008E000BC0087FFFCCFEFE3F3E086E493E034EC59
:1008F0003093BC002091BC0027FFFCCF2091BB00AF
:1009000021938E179F07A1F784E88093BC00809104
:10091000BC0087FFFCCF84E98093BC0040913F037B
:10092000842F829587705AE04F70859F400D112467
:1009300030914003832F829587703F70859F300DE3
:10094000112460914103262F2F70862F90E067FFBE
:1009500080C065FB882780F9FCE08F9F200D112463
:10096000F091420350914303609144038091450309
:10097000952F929597707AE05F70979F500D112494
:10098000E62FE295E7706F70E79F600D1124982FB6
:1009900092959F708F70979F800D112490E08053E7
:1009A000984F9F838E83782F8F819F2F28960FB625
:1009B000F894DEBF0FBECDBFDF91CF911F910F9195
:1009C000FF90EF90089580ED0E9401040E94A30122
:1009D00080E00E9423040E94A30181ED0E94010493
:1009E0000E94A3017FE3E72E73E0F72E10E000E002
:1009F0000E94BB03F70181937F010630110531F19D
:100A000061E080913E030E942F0160E080913D03F0
:100A10000E94010160E080913E030E94010161E0BB
:100A200080913D030E94010160E080913D030E949E
:100A3000010160E080913E030E942F010F5F1F4F74
:100A400007301105A9F60E946B0168CF0E9485014D
:100A5000F5CF64E0959587956A95E1F78370859F5A
:100A6000200D11247DCF0E943504E5E3F3E02083BF
:100A70003183428353836483758386839783409154
:100A800051025091520220E13EE0429FC001439F3B
:100A9000900D529F900D1124409153025091540299
:100AA0006CE3649F9001659F300D1124820F931FAA
:100AB0002091550230915602820F931F092E000C8F
:100AC000AA0BBB0B80934D0290934E02A0934F0252
:100AD000B09350020895CF93DF93909146039923EA
:100AE00049F194EE9093BC009091BC0097FFFCCF2D
:100AF00090ED9093BB0094EC9093BC009091BC005F
:100B000097FFFCCF8093BB0084EC8093BC00809166
:100B1000BC0087FFFCCF6093BB0084EC8093BC00DB
:100B20008091BC0087FFFCCF84E98093BC00DF91FB
:100B3000CF910895C62FD82F80ED0E9401040E9406
:100B4000A3018D2F0E9423040E94A3018C2F0E94D9
:100B500023040E94A301DF91CF910C946B01CF93EA
:100B600090914603992309F441C094EE9093BC0000
:100B70009091BC0097FFFCCF90ED9093BB0094EC5C
:100B80009093BC009091BC0097FFFCCF8093BB007A
:100B900084EC8093BC008091BC0087FFFCCF84EE86
:100BA0008093BC008091BC0087FFFCCF81ED8093D7
:100BB000BB0084EC8093BC008091BC0087FFFCCF1D
:100BC00084EC8093BC008091BC0087FFFCCFC09177
:100BD000BB0084E88093BC008091BC0087FFFCCF01
:100BE00084E98093BC008C2FCF910895C82F80EDAD
:100BF0000E9401040E94A3018C2F0E9423040E94E2
:100C0000A30181ED0E9401040E94A3010E94BB0385
:100C1000C82F0E9485010E946B01E5CFCF93DF931F
:100C2000EC0160E08E810E94010161E08E810E94F2
:100C3000010160E08E810E9401018BE891E0019743
:100C4000F1F7DF91CF910895CF92DF92EF92FF926B
:100C50000F931F93CF93DF936C017C0187E0E80E25
:100C6000F11CD0E0C0E0062F10E0B8010C2E02C04D
:100C7000759567950A94E2F76170F70181917F019C
:100C80000E9401012196C430D10579F7C601DF9198
:100C9000CF911F910F91FF90EF90DF90CF900C9428
:100CA0000E06CF92DF92EF92FF920F931F93CF9396
:100CB000DF93EC01F62E642F8C810E9401018D815F
:100CC0008F3F19F060E00E9401010F2D10E08F8529
:100CD00084FF25C06E0187E0C80ED11CF12CE12CE9
:100CE000B8010E2C02C0759567950A94E2F7617001
:100CF000F60181916F010E940101FFEFEF1AFF0AD7
:100D000088E0E816F10461F7CE01DF91CF911F91E1
:100D10000F91FF90EF90DF90CF900C940E06B801EA
:100D200084E0759567958A95E1F7CE010E942406C7
:100D30006F2DCE01DF91CF911F910F91FF90EF901A
:100D4000DF90CF900C94240640E0682F87E493E076
:100D50000C94510681E00E94A4068BE39FE1019769
:100D6000F1F70895CF93DF93823029F490915603E1
:100D700098609093560380935A0310925B0380E42B
:100D800080935C0380E180935D0380E580935E0344
:100D900061E080914B030E942F0180914C038F3FB3
:100DA00019F061E00E942F0161E080914D030E94E3
:100DB0002F01C7E4D3E09E012754334080915603AE
:100DC00084FD0BC084E090E021962817390744F495
:100DD00061E08E810E942F01EECF88E090E0F4CF99
:100DE0008BE39DE00197F1F760E080914B030E9457
:100DF000010160E080914D030E94010180914C034C
:100E00008F3F19F060E00E9401018091560384FD3C
:100E100034C063E087E493E00E942406CBE4D6E488
:100E2000CE010197F1F763E087E493E00E94240686
:100E30002197F1F763E087E493E00E94240683E5BD
:100E400092E00197F1F762E087E493E00E942406C4
:100E50008091560380620E94A40684E08093570329
:100E60008CE00E94A4060E94AA0682E080935803A8
:100E700086E0DF91CF910C94A40680620E94A406C4
:100E80008BE496E40197F1F78091560380620E940B
:100E9000A40683E592E00197F1F780915603806202
:100EA0000E94A406D5CF90915A03691710F06FEFF6
:100EB000690FE62FF0E0E95BFC4F9489890F8068A9
:100EC0000C94A40641E00E94510681E090E0089550
:100ED0000F931F93CF93DF938B0128E0829FC00174
:100EE000112480640E94A406E801085F1F4F6991E5
:100EF00087E493E00E946207C017D107C1F7DF9132
:100F0000CF911F910F9108950F931F93CF93DF936C
:100F10008C01D0E0C0E0F801EC0FFD1F6491662366
:100F200039F041E087E493E00E9451062196F3CF27
:100F3000CE01DF91CF911F910F910895FC01019097
:100F40000020E9F73197AF01481B590BBC0187E43A
:100F500093E00C940F028F929F92AF92BF920F93E7
:100F60001F93CF93DF93CDB7DEB7A1970FB6F89459
:100F7000DEBF0FBECDBF19A2423008F44AE08E0199
:100F80000F5D1F4F842E912CB12CA12CA501940133
:100F90000E941118E62FB901CA01EA30F4F4E05DAD
:100FA000D801EE938D01232B242B252B79F790E08C
:100FB00080E0109719F0CD010E949E07A1960FB610
:100FC000F894DEBF0FBECDBFDF91CF911F910F917F
:100FD000BF90AF909F908F900895E95CE1CFCF9242
:100FE000DF92EF92FF926C01990FEE08FF08F7FE77
:100FF00016C041E06DE287E493E00E945106662747
:101000007727CB016C197D098E099F094AE00E9460
:10101000AB070196FF90EF90DF90CF9008954AE0E4
:10102000C701B601FF90EF90DF90CF900C94AB0713
:101030000C949E0780916502909166028F30910515
:101040002CF0813191053CF04197B1F1109266028C
:101050001092650208958091590290915A02049766
:10106000A9F781E090E09093580280935702109284
:101070004D0210924E0210924F02109250021092A6
:101080005202109251021092540210925302109286
:101090005602109255020E94330585E090E090932D
:1010A0005A028093590260E080E00E9453078CE46A
:1010B00091E00E941808CACF85E090E090935A0210
:1010C0008093590281E090E0909319018093180178
:1010D000BDCF0F931F93CF93DF938C01EB018091D2
:1010E0002F0390913003009739F020913103309114
:1010F000320326173707B8F4BE016F5F7F4F0E9497
:1011000072190097E1F09093300380932F03D093EE
:101110003203C09331032091330330913403232BE6
:1011200011F4FC011082D0933403C0933303B8014F
:1011300080912F03909130030E94381A14C080913F
:101140002F0390913003009711F00E94E91810923C
:10115000300310922F031092340310923303109235
:101160003203109231038FE293E0DF91CF911F9110
:101170000F9108951F93CF93DF9385ED8093BC006B
:101180008091DF019091E001A091E101B091E20135
:101190000796A11DB11D23E0B695A7959795879554
:1011A0002A95D1F72091BC0024FD03C0109227029C
:1011B00052C04091DF015091E0016091E1017091D6
:1011C000E201452B462B472B69F30097A105B1059A
:1011D00041F02AE22A95F1F700C00197A109B1096F
:1011E000E1CF8091DE01C1E0C093DD01882399F158
:1011F000D091B8001091BA008091BC008A7B809396
:10120000BC0060E082E10E94010160E083E10E9495
:10121000010110922702C09329021092280261E076
:1012200082E10E94010161E083E10E94010180915D
:10123000B9008E7F8093B9008091B9008D7F809333
:10124000B90088E48093B80085E48093BC001093D3
:10125000BA00D093B800DF91CF911F9108950C94FC
:1012600006176091710281E090E00E942F09609161
:101270006F0282E090E00E942F0960916D0283E08E
:1012800090E00E942F096091750284E090E00E9436
:101290002F096091510285E090E00E942F09609132
:1012A000530286E090E00E942F096091550287E08A
:1012B00090E00C942F090C94FE161F920F920FB61B
:1012C0000F9211242F933F938F939F93AF93BF93CC
:1012D00080918A0290918B02A0918C02B0918D0234
:1012E0003091890223E0230F2D3758F50196A11D77
:1012F000B11D2093890280938A0290938B02A09360
:101300008C02B0938D0280918E0290918F02A091F9
:101310009002B09191020196A11DB11D80938E02A1
:1013200090938F02A0939002B0939102BF91AF91DE
:101330009F918F913F912F910F900FBE0F901F9013
:10134000189526E8230F0296A11DB11DD2CF1F923A
:101350000F920FB60F9211242F933F934F935F93E9
:101360006F937F938F939F93AF93BF93EF93FF936D
:1013700082E992E00E948D02FF91EF91BF91AF91BF
:101380009F918F917F916F915F914F913F912F919D
:101390000F900FBE0F901F9018951F920F920FB6CF
:1013A0000F9211242F938F939F93EF93FF93E091CC
:1013B000A202F091A3028081E091A802F091A9021B
:1013C00082FD1BC090818091AB028F5F8F73209153
:1013D000AC02821741F0E091AB02F0E0EE56FD4F17
:1013E000958F8093AB02FF91EF919F918F912F91F9
:1013F0000F900FBE0F901F9018958081F4CF1F9211
:101400000F920FB60F9211242F933F934F935F9338
:101410006F937F938F939F93AF93BF93EF93FF93BC
:101420008091B900887F803609F44AC0F0F588328F
:1014300009F4A5C018F5803109F499C0B8F48823DF
:1014400009F4F5C0883009F492C0FF91EF91BF9183
:10145000AF919F918F917F916F915F914F913F914C
:101460002F910F900FBE0F901F901895883109F49F
:1014700086C0803251F78093260214C0803409F46C
:101480009BC040F48033B9F38833F9F68093260289
:1014900085ECAEC0803509F483C0883509F494C06A
:1014A000883499F60E94BA08D0CF883909F48AC0E6
:1014B00038F5883729F050F4883611F0803729F64E
:1014C00083E0809327021092250255C0883809F4E2
:1014D00079C0803919F0803809F0B7CF80912502A2
:1014E000803208F06FC0E091250281E08E0F80937A
:1014F00025028091BB00F0E0EB5FFD4F80833BC095
:10150000803B39F0D0F4803A09F477C0883A09F08A
:101510009CCF84E080932702109204021092030271
:10152000F0E0E0E009958091030281110FC081E0B5
:10153000809303021092E30109C0803C09F4A8CF14
:10154000883C09F4A5CF883B09F07FCFE0910402E5
:1015500081E08E0F80930402F0E0ED51FE4F808118
:101560008093BB00909104028091030229C0809176
:101570004C028093BB0085EC8093BC0066CF9091B9
:101580004B0280914A02981758F5E0914B0281E096
:101590008E0F80934B02F0E0E65DFD4F8081E9CF36
:1015A000E0914B0281E08E0F80934B028091BB0053
:1015B000F0E0E65DFD4F808390914B0280914A02FE
:1015C0009817C8F285E8D8CFE0914B0281E08E0FE2
:1015D00080934B028091BB00F0E0E65DFD4F80837D
:1015E0008091290281115ECF81E08093280284EAF4
:1015F0008093BC001092270228CF85EC8093BC001A
:101600001092270280912502803230F4E091250269
:10161000F0E0EB5FFD4F10826091250270E085E005
:1016200092E0F0E0E0E00995109225020ECF1092D2
:10163000260238CFCF93E2E9F2E01382128288EEDD
:1016400093E0A0E0B0E084839583A683B78382E330
:1016500091E09183808385EC90E09587848784EC8A
:1016600090E09787868780EC90E0918B808B81EC6F
:1016700090E0938B828B82EC90E0958B848B86EC50
:1016800090E0978B868B118E128E138E148EE7E46A
:10169000F3E01382128284E491E09183808382E0FC
:1016A00084838FEF8583C3E0C68384E0878385E0EE
:1016B000808786E0818787E0828713861486158677
:1016C0001686178681E00E94B206EDE3F3E082E120
:1016D000818383E18083E5E3F3E08EED97E09683F9
:1016E000858381E084838383108211821282C78381
:1016F000EFE2F3E0118210821382128215821482CB
:1017000062E070E089E591E0CF910C946908CF9395
:10171000DF93CDB7DEB766970FB6F894DEBF0FBE86
:10172000CDBF789484B5826084BD84B5816084BD6A
:1017300085B5826085BD85B5816085BD80916E006F
:10174000816080936E0010928100809181008260A0
:1017500080938100809181008160809381008091DD
:1017600080008160809380008091B10084608093CC
:10177000B1008091B00081608093B00080917A00C8
:10178000846080937A0080917A00826080937A00EE
:1017900080917A00816080937A0080917A008068DD
:1017A00080937A001092C100E091A202F091A3020E
:1017B00082E08083E0919E02F0919F021082E0918E
:1017C000A002F091A1028FEC80831092AA02E09116
:1017D000A602F091A70286E08083E091A402F09136
:1017E000A502808180618083E091A402F091A5022E
:1017F000808188608083E091A402F091A5028081BD
:1018000080688083E091A402F091A50280818F7DA1
:10181000808380913E03823109F0EEC680913D03C2
:10182000833109F0E9C681E08093460361E082E1FB
:101830000E94010161E083E10E9401018091B900F1
:101840008E7F8093B9008091B9008D7F8093B9001D
:101850008CE08093B80085E08093BC0062E08EE06D
:101860000E942F0162E08FE00E942F0162E080E180
:101870000E942F0162E081E10E942F0161E088E077
:101880000E942F0160E171E081E00E94680768E03A
:1018900071E082E00E94680760E071E083E00E94EE
:1018A000680782E00E94B20660E080E00E94530771
:1018B0008CE591E00E94180861E080E00E945307E7
:1018C0008EE691E00E94180860ED77E080E090E0FD
:1018D0000E94DD010E94AA0682E390E00E945B095B
:1018E00081110E94310960E082E390E00E942F099B
:1018F00081E090E00E945B0990E0909372028093F7
:10190000710282E090E00E945B0990E09093700287
:1019100080936F0283E090E00E945B0990E09093D7
:101920006E0280936D0284E090E00E945B0990E07B
:1019300090937602809375020E9433050AE010E0CE
:1019400022242394312C0E943504209335033093B4
:1019500036034093370350933803609339037093F1
:101960003A0380933B0390933C038EE0E0E2F1E086
:10197000DE01119601900D928A95E1F70E943504DF
:101980002F87388B498B5A8B6B8B7C8B8D8B9E8BE7
:10199000292F2150330BF901EE0FFF1F81E090E05A
:1019A0008C0F9D1FE80FF91F80819181009709F42A
:1019B0002BC6FC0101900020E9F73197BF01681B9D
:1019C000790B0E9469088091870290918802892B87
:1019D00059F58091350390E09093860280938502BB
:1019E0008091360390E090938402809383028091EB
:1019F000370390E0909382028093810280913803B4
:101A000090E09093800280937F028091390390E070
:101A100090937E0280937D0280913A0390913B03E4
:101A200090937C0280937B028091790290917A025C
:101A3000892B09F02CC18091770290917802892B33
:101A400009F025C160E080E00E9453078091850283
:101A500090918602B8010E94FD17CB01B8010E9447
:101A6000FD170E94EF078091850290918602B801D0
:101A70000E94FD170E94EF078EE791E00E94180870
:101A80008091830290918402B8010E94FD17CB01DE
:101A9000B8010E94FD170E94EF0780918302909188
:101AA0008402B8010E94FD170E94EF078EE791E0C3
:101AB0000E9418088091810290918202B8010E94D0
:101AC000FD17CB01B8010E94FD170E94EF0780911E
:101AD000810290918202B8010E94FD170E94EF07D7
:101AE0008AE591E00E941808809175029091760233
:101AF000019709F09EC562E087E493E00E946207C7
:101B00008AE591E00E94180861E087E493E00E9472
:101B1000620781E10E94AF05F82E82E10E94AF05C5
:101B2000682F70E0E6E075956795EA95E1F7072E76
:101B3000000C880B990B0E94E11520E030E040E892
:101B40005EE30E9440164B015C016F2D70E090E057
:101B500080E00E94DF159B01AC01C501B4010E9429
:101B60004C176B017C014B015C01AC019B010E9495
:101B7000EC17882309F462C580E891E00E949E0773
:101B800063E087E493E00E9462078CE891E00E94A2
:101B9000180889E591E00E94180861E081E00E9440
:101BA0005307409133035091340360912F03709198
:101BB000300387E493E00E940F028AE591E00E94DF
:101BC000180880917F0290918002B8010E94FD1751
:101BD000CB01B8010E94FD170E94EF0780917F02A0
:101BE00090918002B8010E94FD170E94EF078EE8D5
:101BF00091E00E94180880917D0290917E02B801C8
:101C00000E94FD17CB01B8010E94FD170E94EF074B
:101C100080917D0290917E02B8010E94FD170E9482
:101C2000EF078EE891E00E94180880917B02909166
:101C30007C0268EE73E00E94FD17CB01B8010E94A0
:101C4000FD170E94EF0780917B0290917C0264E671
:101C500070E00E94FD17CB01B8010E94FD170E94A1
:101C6000EF0780917B0290917C02B8010E94FD17E2
:101C7000CB01B8010E94FD170E94EF0780917B0203
:101C800090917C02B8010E94FD170E94EF0780919D
:101C9000870290918802089709F083C060E080E095
:101CA0000E9453078BE990E00E94840761E080E086
:101CB0000E9453078AE890E00E94840768EE73E070
:101CC00080E090E00E94DD0180918502883158F526
:101CD000D09083029BE39D1530F1E09081029E1528
:101CE00010F17AE0F72E6F2D0E94F1178295807F18
:101CF000682F690F82E00E946B058D2D6F2D0E9469
:101D0000F1178295807F682F690F81E00E946B0533
:101D10008E2D6F2D0E94F1178295807F682F690F9D
:101D200080E00E946B05E0907F028FEF8E0D8F3177
:101D300090F5D0907D028FEF8D0D8C3060F5809105
:101D40007B0290917C02805D9740883E23E0920761
:101D500010F56AE0F62E6F2D0E94F1178295807FB4
:101D6000682F690F86E00E946B058D2D6F2D0E94F4
:101D7000F1178295807F682F690F85E00E946B05BF
:101D80008E2D6F2D0E94F1178295807F682F690F2D
:101D900084E00E946B050E94AA06109288021092AD
:101DA00087028091790290917A02059711F560E09F
:101DB00080E00E94530789E790E00E94840761E079
:101DC00080E00E94530788E690E00E9484070E940A
:101DD000310960ED77E080E090E00E94DD010E9433
:101DE000AA0610927A02109279023092740220921E
:101DF00073028091770290917802049761F41092B7
:101E000078021092770210926C0210926B0210927C
:101E10006A0210926902E0907902F0907A021E1430
:101E20001F0424F410927402109273028EE00E9438
:101E3000D800892BD9F48091670290916802892B90
:101E4000A9F48091770290917802892B09F055C40A
:101E500030926802209267021E141F040CF043C4E3
:101E600085E090E090937A028093790281E10E946C
:101E7000D800E0906B02F0906C02892BC9F580913C
:101E8000670290916802892B99F531E0E316F1041D
:101E9000A9F48091690290916A02019779F4809186
:101EA000770290917802019690937802809377025E
:101EB00081E190E0909366028093650280917702C1
:101EC00090917802892BA1F43092680220926702E7
:101ED0008091870290918802181619060CF014C49C
:101EE00028E030E030938802209387020E94AA06FF
:101EF0008EE00E94D800019749F481E10E94D80049
:101F0000019721F410926802109267028FE00E94FC
:101F1000D800892B09F080C031E0E316F10461F4A8
:101F20008091690290916A02019731F48FE090E00C
:101F300090936602809365028091790290917A0273
:101F4000892B09F58091870290918802892BD9F419
:101F5000EF28C9F430926C0220926B0280916902E2
:101F600090916A028130910571F490937802809388
:101F7000770221E130E030936602209365020E94EF
:101F80001A080E94AA068091770290917802892B04
:101F900009F040C0C0907902D0907A02E0908702A8
:101FA000F0908802C114D10409F531E0E316F10480
:101FB00009F079C5809185029091860201969093EF
:101FC00086028093850234E0E316F10409F4B0C37D
:101FD00085E0E816F10409F079C580917F029091BF
:101FE000800201969093800280937F026091630249
:101FF0008FEF860F873018F483E00E946B05EF287F
:1020000049F481E0C816D10409F06FC5D092760278
:10201000C09275020E94710380E10E94D800892B52
:1020200009F084C080916B0290916C02813091051F
:1020300069F42091690230916A022130310531F44E
:1020400020E130E03093660220936502209179020E
:1020500030917A02232B09F5209187023091880272
:10206000232BD9F42091690230916A02232BA9F421
:1020700030926A02209269028130910571F4909346
:1020800078028093770281E190E0909366028093DA
:1020900065020E941A080E94AA0680917702909118
:1020A0007802892B09F040C0C0907902D0907A0262
:1020B000E0908702F0908802C114D10409F591E004
:1020C000E916F10409F02EC58091850290918602EF
:1020D0000197909386028093850234E0E316F10421
:1020E00009F464C385E0E816F10409F02EC5809177
:1020F0007F029091800201979093800280937F02EB
:10210000609163028FEF860F873018F483E00E949E
:102110006B05EF2849F421E0C216D10409F024C56B
:1021200010927602109275020E94710380916B02E8
:1021300090916C02019709F0B1C0C0906902D090F3
:102140006A0231E0C316D10409F0A8C08EE00E94F3
:10215000D8007C018FE00E94D800EE0CFF1CEE0C32
:10216000FF1C9C01220F331F820F931FE80EF91EE4
:1021700080E10E94D800880F991FE80EF91E81E1C6
:102180000E94D8008E0D9F1D909362028093610281
:102190000A97C1F180915F0290916002892B91F5BD
:1021A00060E080E00E9453078CE591E00E941808EF
:1021B00060ED77E080E090E00E94DD01D092600267
:1021C000C0925F0280916102909162028730910516
:1021D00009F434C30CF01EC3069709F428C32FB7C3
:1021E000F89480918A0290918B02A0918C02B09118
:1021F0008D022FBF80935B0290935C02A0935D02DF
:10220000B0935E0280916102909162020A9709F098
:1022100041C080915F029091600218161906D4F5B2
:1022200060E080E00E94530780E991E00E94180876
:1022300060ED77E080E090E00E94DD012FB7F89438
:1022400080918A0290918B02A0918C02B0918D02B4
:102250002FBF40915B0250915C0260915D027091D2
:102260005E02841B950BA60BB70B80329340A10531
:10227000B1050CF00BC48091590290915A02843040
:10228000910509F4E1C2059709F440C31092660272
:10229000109265021092600210925F0280917702A4
:1022A00090917802892B09F070C0809187029091FB
:1022B0008802892B09F069C08091790290917A0295
:1022C000181619060CF061C060E080E00E94530708
:1022D00082EA91E00E94180880917502909176023E
:1022E000892B09F0DDC389EA91E00E94180861E0BA
:1022F00084E00E9453078091710290917202B801AC
:102300000E94FD17CB01B8010E94FD170E94EF0744
:102310008091710290917202B8010E94FD170E9493
:10232000EF078EE791E00E94180880916F0290916C
:102330007002B8010E94FD17CB01B8010E94FD1781
:102340000E94EF0780916F0290917002B8010E9485
:10235000FD170E94EF078EE791E00E941808809118
:102360006D0290916E02B8010E94FD17CB01B80179
:102370000E94FD170E94EF0780916D0290916E02FE
:10238000B8010E94FD170E94EF0764E670E080E04C
:1023900090E00E94DD018091770290917802892B74
:1023A00009F0DCC08091790290917A02892B71F456
:1023B0008091870290918802019741F460E080E06B
:1023C0000E94530789E591E00E94180880917902E4
:1023D00090917A02892B71F4809187029091880202
:1023E000029741F460E083E00E94530789E591E0A1
:1023F0000E9418088091790290917A02892B71F4D9
:102400008091870290918802039741F460E086E012
:102410000E94530789E591E00E9418088091790293
:1024200090917A02892B71F48091870290918802B1
:10243000049741F461E081E00E94530788E591E050
:102440000E9418088091790290917A02892B71F488
:102450008091870290918802059741F461E085E0C0
:102460000E94530789E591E00E9418088091790243
:1024700090917A02892B71F4809187029091880261
:10248000069741F461E088E00E94530789E591E0F6
:102490000E9418088091790290917A02892B71F438
:1024A0008091870290918802079741F461E08BE068
:1024B0000E94530787E591E00E94180880918702E7
:1024C00090918802892B71F48091790290917A021F
:1024D000019741F460E086E00E94530780E591E0B7
:1024E0000E9418088091870290918802892B71F4CC
:1024F0008091790290917A02029741F461E084E040
:102500000E94530789E591E00E9418088091870294
:1025100090918802892B71F48091790290917A02CE
:10252000039741F461E087E00E94530789E591E059
:102530000E9418088091870290918802892B71F47B
:102540008091790290917A02049741F461E08AE0E7
:102550000E94530789E591E00E9418088091730258
:1025600090917402019789F580917502909176029D
:10257000019759F520918502309186028091710270
:10258000909172022817390701F52091830230914A
:10259000840280916F029091700228173907A9F484
:1025A000209181023091820280916D0290916E02A1
:1025B0002817390754F060E088E00E9401016CE2BE
:1025C00071E080E090E00E94DD0161E088E00E941F
:1025D000010164E670E080E090E00E94DD0180E0AF
:1025E00090E0892B09F4AFC90E947902882309F48D
:1025F000AAC90E940000A7C91092460361E0809119
:102600003D030E942F012AC980912F03909130032E
:10261000009711F00E94E9181092300310922F03D6
:10262000109234031092330310923203109231034C
:10263000CAC98AE591E00E94180862CA26013701DA
:10264000E89477F82FEF3FEF4FE75FE7C301B20160
:102650000E94EC1781110DC02FEF3FEF4FE75FE7AE
:10266000C301B2010E94DA1518161CF484E891E047
:1026700085CA2FEF3FEF4FE75FE4C701B6010E9425
:10268000E71718161CF488E891E078CA2FEF3FEF9F
:102690004FE75FECC701B6010E94DA1587FDF3CF63
:1026A00020E030E0A901C701B6010E94DA1587FFDA
:1026B0000CC041E06DE287E493E00E9451064601C0
:1026C0005701B7FAB094B7F8B09420E030E040E09A
:1026D0005FE3C501B4010E944C170E94B8174AE09D
:1026E0000E94AB074DCA80918702909188020196A3
:1026F0009093880280938702B9CB2EE030E030932C
:10270000660220936502B2CB8091790290917A02A1
:10271000019690937A0280937902E8CB80918302AC
:1027200090918402019690938402809383024BCC13
:102730008091630290916402019690936402809369
:10274000630227E0E216F10409F050CC80917B028D
:1027500090917C02019690937C0280937B0246CC00
:102760008091710290917202883191050CF052CCE7
:10277000019690937202809371024CCC80916F020B
:10278000909170028B3391050CF044CC019690939C
:10279000700280936F023ECC8091830290918402FC
:1027A0000197909384028093830297CC8091630277
:1027B000909164020197909364028093630227E0F2
:1027C000E216F10409F09CCC80917B0290917C028E
:1027D000019790937C0280937B0292CC809171024E
:1027E00090917202181619060CF09ECC01979093E6
:1027F00072028093710298CC80916F029091700266
:10280000181619060CF090CC0197909370028093E3
:102810006F028ACC88309105A1F021E130E0099760
:1028200009F0DDCC3093660220936502D8CC8EE0AF
:1028300090E09093660280936502D1CC2FE030E067
:10284000F1CF80E190E0F5CF809165029091660232
:102850000F97029708F01ACD81E090E0209157027F
:10286000309158022130310511F490E080E09093CE
:1028700058028093570261E080E00E94530787E589
:1028800091E00E94180880915102909152020A979B
:1028900024F48DE991E00E941808809151029091F2
:1028A00052020E94EF078EE791E00E941808809183
:1028B0005302909154020A9724F48DE991E00E940A
:1028C000180880915302909154020E94EF078EE7FE
:1028D00091E00E94180880915502909156020A9743
:1028E00024F48DE991E00E9418088091550290919E
:1028F00056020E94EF0787E591E00E9418086CE2FB
:1029000071E080E090E00E94DD01C0CC8091650222
:10291000909166028F30910509F43FC0A4F40E97A0
:1029200009F0B4CC0E94330584E090E090935A0201
:102930008093590210925802109257023092190156
:1029400020921801A3CC8031910509F464C041970D
:1029500009F09CCC80911801909119018330910568
:102960000CF08FC00196909319018093180160E0DC
:1029700080E00E9453078CE491E00E941808909137
:102980001801892F880F890F60E08F5F0E9453071D
:102990008FE991E00E94180879CC809118019091FC
:1029A00019018230910529F18330910589F0019751
:1029B00009F06CCC809151029091520288349105BB
:1029C0000CF064CC019690935202809351025ECC3D
:1029D00080915502909156028B33910534F4019603
:1029E000909356028093550251CC10925602109249
:1029F000550280915302909154028B33910534F427
:102A00000196909354028093530240CC309254022A
:102A100020925302CFCF80911801909119018230FA
:102A20009105F9F08330910569F0019709F02ECCFA
:102A30008091510290915202181619060CF026CC82
:102A40000197C1CF80915502909156021816190630
:102A500014F40197C5CF2BE330E030935602209356
:102A6000550280915302909154021816190614F4DD
:102A70000197C7CF8BE390E0909354028093530269
:102A8000D7CF309219012092180171CF80915F0247
:102A900090916002019709F0FDCB0E941A08FACBD1
:102AA00084EB91E022CC92E0E916F10409F436CEF1
:102AB00023E0E216F10409F086CA80918102909128
:102AC00082020196909382028093810296E0E91639
:102AD000F10409F036CE80917D0290917E0201963C
:102AE00090937E0280937D0281CA32E0C316D104A6
:102AF00009F436CE83E0C816D10409F43FCE94E041
:102B0000C916D10409F086CA80916D0290916E02B7
:102B10008B3391050CF07ECA019690936E028093E0
:102B20006D0278CA92E0E916F10409F435CE23E08B
:102B3000E216F10409F0D1CA8091810290918202DB
:102B40000197909382028093810296E0E916F10446
:102B500009F035CE80917D0290917E02019790938D
:102B60007E0280937D02CCCA32E0C316D10409F400
:102B700035CE83E0C816D10409F43ECE24E0C21657
:102B8000D10409F0D1CA80916D0290916E0218169D
:102B900019060CF0C9CA019790936E0280936D02DA
:102BA000C3CA80912F0390913003009711F00C94C9
:102BB000E91808950E941C1608F481E00895E8942D
:102BC00009C097FB3EF490958095709561957F4F75
:102BD0008F4F9F4F9923A9F0F92F96E9BB27939523
:102BE000F695879577956795B795F111F8CFFAF433
:102BF000BB0F11F460FF1BC06F5F7F4F8F4F9F4F64
:102C000016C0882311F096E911C0772321F09EE8C1
:102C1000872F762F05C0662371F096E8862F70E027
:102C200060E02AF09A95660F771F881FDAF7880F01
:102C30009695879597F90895990F0008550FAA0B57
:102C4000E0E8FEEF16161706E807F907C0F01216BF
:102C50001306E407F50798F0621B730B840B950BC2
:102C600039F40A2661F0232B242B252B21F4089517
:102C70000A2609F4A140A6958FEF811D811D0895B4
:102C80000E9453160C94C4160E94B61638F00E9487
:102C9000BD1620F0952311F00C94AD160C94B316CC
:102CA00011240C94F8160E94D51670F3959FC1F369
:102CB000950F50E0551F629FF001729FBB27F00DEA
:102CC000B11D639FAA27F00DB11DAA1F649F66273F
:102CD000B00DA11D661F829F2227B00DA11D621F8E
:102CE000739FB00DA11D621F839FA00D611D221F48
:102CF000749F3327A00D611D231F849F600D211D2C
:102D0000822F762F6A2F11249F5750409AF0F1F0AE
:102D100088234AF0EE0FFF1FBB1F661F771F881F17
:102D200091505040A9F79E3F510580F00C94AD168C
:102D30000C94F8165F3FE4F3983ED4F386957795AC
:102D40006795B795F795E7959F5FC1F7FE2B880FBD
:102D5000911D9695879597F9089597F99F6780E853
:102D600070E060E008959FEF80EC089500240A94DD
:102D70001616170618060906089500240A94121656
:102D80001306140605060895092E0394000C11F489
:102D9000882352F0BB0F40F4BF2B11F460FF04C036
:102DA0006F5F7F4F8F4F9F4F089557FD9058440F8F
:102DB000551F59F05F3F71F04795880F97FB991F9A
:102DC00061F09F3F79F08795089512161306140657
:102DD000551FF2CF4695F1DF08C0161617061806E4
:102DE000991FF1CF86957105610508940895E894BF
:102DF000BB2766277727CB0197F90895F999FECF6E
:102E000092BD81BDF89A992780B50895262FF9992A
:102E1000FECF1FBA92BD81BD20BD0FB6F894FA9ABD
:102E2000F99A0FBE019608952F923F924F925F92AA
:102E30006F927F928F929F92AF92BF92CF92DF92CA
:102E4000EF92FF920F931F93CF93DF93CDB7DEB72F
:102E5000CA1BDB0B0FB6F894DEBF0FBECDBF0994C3
:102E60002A88398848885F846E847D848C849B841A
:102E7000AA84B984C884DF80EE80FD800C811B8128
:102E8000AA81B981CE0FD11D0FB6F894DEBF0FBE57
:102E9000CDBFED0108955058BB27AA270E946317A4
:102EA0000C94C4160E94B61638F00E94BD1620F08D
:102EB00039F49F3F19F426F40C94B3160EF4E09500
:102EC000E7FB0C94AD16E92F0E94D51658F3BA17FC
:102ED000620773078407950720F079F4A6F50C9430
:102EE000F7160EF4E0950B2EBA2FA02D0B01B901A9
:102EF00090010C01CA01A0011124FF27591B99F070
:102F0000593F50F4503E68F11A16F040A22F232F7B
:102F1000342F4427585FF3CF469537952795A795CB
:102F2000F0405395C9F77EF41F16BA0B620B730B72
:102F3000840BBAF09150A1F0FF0FBB1F661F771FE3
:102F4000881FC2F70EC0BA0F621F731F841F48F498
:102F5000879577956795B795F7959E3F08F0B0CF21
:102F60009395880F08F09927EE0F97958795089508
:102F70000E94DD1688F09F5798F0B92F9927B75116
:102F8000B0F0E1F0660F771F881F991F1AF0BA950D
:102F9000C9F714C0B13091F00E94F716B1E008955E
:102FA0000C94F716672F782F8827B85F39F0B93F50
:102FB000CCF3869577956795B395D9F73EF49095C0
:102FC0008095709561957F4F8F4F9F4F08950E9418
:102FD0001C1608F48FEF08950E941C16880B990B9D
:102FE0000895991B79E004C0991F961708F0961B65
:102FF000881F7A95C9F78095089597FB072E16F4D8
:10300000009407D077FD09D00E94331807FC05D043
:103010003EF4909581959F4F0895709561957F4FEF
:103020000895A1E21A2EAA1BBB1BFD010DC0AA1F09
:10303000BB1FEE1FFF1FA217B307E407F50720F021
:10304000A21BB30BE40BF50B661F771F881F991F9C
:103050001A9469F760957095809590959B01AC01E5
:10306000BD01CF010895AA1BBB1B51E107C0AA1FD8
:10307000BB1FA617B70710F0A61BB70B881F991F19
:103080005A95A9F780959095BC01CD010895EE0F52
:10309000FF1F0590F491E02D09940F931F93CF9398
:1030A000DF938230910510F482E090E0E0916103BB
:1030B000F091620330E020E0B0E0A0E0309799F4B6
:1030C0002115310509F44AC0281B390B243031057C
:1030D000D8F58A819B816115710589F1FB01938384
:1030E0008283FE0111C04081518102811381481702
:1030F0005907E0F04817590799F4109761F01296B4
:103100000C93129713961C933296CF01DF91CF91B7
:103110001F910F9108950093610310936203F4CF00
:103120002115310551F04217530738F0A901DB0191
:103130009A01BD01DF01F801C1CFEF01F9CF9093F2
:10314000620380936103CDCFFE01E20FF31F8193F1
:1031500091932250310939832883D7CF20915F037F
:1031600030916003232B41F420911C0130911D010B
:103170003093600320935F0320911A0130911B016B
:103180002115310541F42DB73EB740911E015091F4
:103190001F01241B350BE0915F03F0916003E217E0
:1031A000F307A0F42E1B3F0B2817390778F0AC016A
:1031B0004E5F5F4F2417350748F04E0F5F1F509347
:1031C000600340935F03819391939FCFF0E0E0E031
:1031D0009CCFCF93DF930097E9F0FC0132971382E5
:1031E0001282A0916103B0916203ED0130E020E012
:1031F0001097A1F420813181820F931F20915F03EA
:10320000309160032817390709F061C0F09360031B
:10321000E0935F03DF91CF910895EA01CE17DF07B6
:10322000E8F54A815B819E0141155105B1F7E9013D
:10323000FB83EA8349915991C40FD51FEC17FD0711
:1032400061F4808191810296840F951FE901998331
:103250008883828193819B838A83F0E0E0E01296E9
:103260008D919C9113970097B9F52D913C911197F1
:10327000CD010296820F931F20915F03309160036E
:103280002817390739F6309751F5109262031092DA
:103290006103B0936003A0935F03BCCFD383C28369
:1032A00040815181840F951FC817D90761F44E5F83
:1032B0005F4F88819981480F591F518340838A81CC
:1032C0009B81938382832115310509F0B0CFF09360
:1032D0006203E09361039ECFFD01DC01C0CF138246
:1032E0001282D7CFB0E0A0E0E8E7F9E10C9416171E
:1032F0008C01009751F4CB010E944D188C01C8013C
:10330000CDB7DEB7E0E10C943217FC01E60FF71FF2
:103310009C0122503109E217F30708F49DC0D9013E
:10332000CD91DC911197C617D70798F0C530D1051C
:1033300030F3CE0104978617970708F3C61BD70B07
:103340002297C193D1936D937C93CF010E94E9188A
:10335000D6CF5B01AC1ABD0A4C018C0E9D1EA0910C
:103360006103B0916203512C412CF12CE12C109798
:1033700031F580915F03909160038815990509F0FC
:103380005CC04616570608F058C080911A0190910B
:103390001B01009741F48DB79EB740911E015091DB
:1033A0001F01841B950BE817F90708F055C0F0932F
:1033B0006003E0935F03F90171836083A0CF8D9177
:1033C0009C91119712966C90129713967C9013977C
:1033D000A815B90559F56C0142E0C40ED11CCA14F8
:1033E000DB0420F1AC014A195B09DA01129615974A
:1033F00080F06282738251834083D9016D937C9304
:10340000E114F10471F0D7011396FC93EE93129737
:1034100076CF22968C0F9D1FF90191838083F30153
:10342000EFCFF0936203E093610369CF481659062A
:1034300008F42C017D01D3019ACFCB010E944D18D5
:103440007C01009749F0AE01B8010E942F1AC80113
:103450000E94E918870153CF10E000E050CFFB0134
:10346000DC0102C001900D9241505040D8F7089500
:10347000FB01DC0101900D920020E1F7089510E0BE
:10348000C4E8D0E004C0FE010E9447182196C53868
:08349000D107C9F7F894FFCF42
:103498000E0A0E0000000000040E0E0E0E1F080497
:1034A800040A0A0E1F1B0E0E0100000063038000B1
:1034B800BF01C301C701CB01CF01D301D701000070
:1034C8000000AF020F023C02FC026D024B025F02D9
:1034D8000000000062070F026E031C03202020205A
:1034E800202020202020202020202000205265613C
:1034F8006C2054696D6520436C6F636B20005769BD
:10350800746820416C61726D2026204344003A00A3
:103518006E616E00696E66006F76660043002F006C
:10352800205265616C20436C6F636B200030005F34
:103538005F00416C61726D20004465616374697657
:103548006174650041637469766174656420004D37
:103558006F6E0054756500576564005468750046C1
:0C3568007269005361740053756E00001E
:00000001FF
