:100000000C9494000C94BC000C94BC000C94BC00A8
:100010000C94BC000C94BC000C94BC000C94BC0070
:100020000C94BC000C94BC000C94BC000C94BC0060
:100030000C94BC000C94BC000C94BC000C94BC0050
:100040000C94D1090C94BC000C94410A0C941B0A2A
:100050000C94BC000C94BC000C94BC000C94BC0030
:100060000C94730A0C94BC00202020436F756E74AE
:10007000646F776E0020436F756E74657220446FF5
:100080006E65212020002D454550524F4D20557062
:1000900064617465642D0053657420416C61726DF8
:1000A0002046696E697368005365742054696D65F4
:1000B0002046696E6973682000536574204461743A
:1000C000652046696E697368200000000000240006
:1000D00027002A0000000000250028002B00000057
:1000E000000023002600290004040404040404047E
:1000F00002020202020203030303030301020408D3
:100100001020408001020408102001020408102081
:1001100000000008000201000003040700000000C6
:10012000000000008E0B791611241FBECFEFD8E01F
:10013000DEBFCDBF23E0AEECB1E001C01D92A9351A
:10014000B207E1F711E0A0E0B1E0E8E7F6E302C0B2
:1001500005900D92AE3CB107D9F710E0C3E9D0E0AD
:1001600004C02197FE010E943719C239D107C9F78F
:100170000E94FB0B0C942F1B0C940000833081F029
:1001800028F4813099F08230A9F008958730A9F0E1
:100190008830C9F08430B1F4809180008F7D03C035
:1001A000809180008F7780938000089584B58F7749
:1001B00084BD089584B58F7DFBCF8091B0008F778B
:1001C0008093B00008958091B0008F7DF9CFCF93D8
:1001D000DF93282F30E0F901E05FFE4F8491F901B1
:1001E000E450FF4FD491F901E851FF4FC491CC2363
:1001F000A1F081110E94BE00EC2FF0E0EE0FFF1F76
:10020000E252FF4FA591B491EC91ED2381E090E093
:1002100009F480E0DF91CF91089580E090E0FACF7B
:100220001F93CF93DF93282F30E0F901E05FFE4F5B
:100230008491F901E450FF4FD491F901E851FF4F47
:10024000C491CC23A9F0162F81110E94BE00EC2F7F
:10025000F0E0EE0FFF1FEC52FF4FA591B4918FB766
:10026000F894EC91111108C0D095DE23DC938FBF78
:10027000DF91CF911F910895DE2BF8CFCF93DF93BD
:1002800090E0FC01E450FF4F249188519F4FFC0106
:1002900084918823C9F090E0880F991FFC01E653F0
:1002A000FF4FA591B491FC01EC52FF4FC591D49141
:1002B00061110DC09FB7F8948C91209582238C9387
:1002C0008881282328839FBFDF91CF9108956230D2
:1002D00051F49FB7F8943C91822F809583238C939F
:1002E000E8812E2BEFCF8FB7F894EC912E2B2C9327
:1002F0008FBFEACFCF93DF93C3E3D3E061E089817F
:100300000E943E0160E089810E94100161E08881C5
:100310000E94100161E089810E94100160E08981E2
:10032000DF91CF910C943E01CF93DF93C3E3D3E0F1
:1003300061E089810E943E0160E088810E94100195
:1003400061E089810E94100161E088810E941001B2
:1003500060E088810E94100160E08981DF91CF9187
:100360000C943E0160E0809134030E943E0161E004
:10037000809133030E941001809134030E94E700B2
:100380000197D1F360E0809133030C9410013FB7E3
:10039000F8948091840290918502A0918602B09198
:1003A000870226B5A89B05C02F3F19F00196A11D15
:1003B000B11D3FBFBA2FA92F982F8827BC01CD01AF
:1003C000620F711D811D911D42E0660F771F881F0E
:1003D000991F4A95D1F708958F929F92AF92BF923D
:1003E000CF92DF92EF92FF924B015C010E94C70116
:1003F0006B017C010E94C7016C197D098E099F0960
:10040000683E734081059105A8F321E0821A9108A6
:10041000A108B10888EEC80E83E0D81EE11CF11CCB
:1004200081149104A104B10429F7FF90EF90DF90AB
:10043000CF90BF90AF909F908F9008952FB7F89472
:10044000609180027091810280918202909183027A
:100450002FBF0895AF92BF92CF92DF92EF92FF929B
:100460000F931F93CF93DF936C017B018B01040FDC
:10047000151FEB015E01AE18BF08C017D10759F078
:100480006991D601ED91FC910190F081E02DC601BA
:100490000995892B79F7C501DF91CF911F910F91B4
:1004A000FF90EF90DF90CF90BF90AF900895FC0148
:1004B000538D448D252F30E0842F90E0821B930BC9
:1004C000541710F0CF96089501970895FC01918D6F
:1004D000828D981761F0A28DAE0FBF2FB11D5D9672
:1004E0008C91928D9F5F9F73928F90E008958FEF14
:1004F0009FEF0895FC01918D828D981731F0828DC8
:10050000E80FF11D858D90E008958FEF9FEF08951E
:10051000FC01918D228D892F90E0805C9F4F821B82
:1005200091098F739927089588E892E00E948802C4
:1005300021E0892B09F420E0822F089580E090E0EB
:10054000892B29F00E94940281110C9400000895D7
:10055000FC01A48DA80FB92FB11DA35ABF4F2C9138
:10056000848D90E001968F739927848FA689B7892F
:100570002C93A089B1898C91837080648C93938D26
:10058000848D981306C00288F389E02D80818F7DC9
:1005900080830895EF92FF920F931F93CF93DF9381
:1005A000EC0181E0888F9B8D8C8D98131AC0E889AF
:1005B000F989808185FF15C09FB7F894EE89FF897E
:1005C0006083E889F98980818370806480839FBF1C
:1005D00081E090E0DF91CF911F910F91FF90EF901C
:1005E0000895F62E0B8D10E00F5F1F4F0F7311272C
:1005F000E02E8C8D8E110CC00FB607FCFACFE88967
:10060000F989808185FFF5CFCE010E94A802F1CF44
:10061000EB8DEC0FFD2FF11DE35AFF4FF0829FB7DA
:10062000F8940B8FEA89FB8980818062CFCFCF93CA
:10063000DF93EC01888D8823B9F0AA89BB89E8890A
:10064000F9898C9185FD03C0808186FD0DC00FB6B0
:1006500007FCF7CF8C9185FFF2CF808185FFEDCF2E
:10066000CE010E94A802E9CFDF91CF9108950895AD
:100670002091F501260F3327331F21323105ECF489
:1006800020911902FC0190E080E0243069F082E0C2
:100690000895A091F5012191AC014B525E4FA40F3A
:1006A000B52FB11D2C930196861798F38091F50113
:1006B000680F6093F50180E0089581E00895089542
:1006C0008FEF9FEF08958FEF9FEF08958091CE01F8
:1006D00090E09195819591090895CF93DF93CB0197
:1006E000EA01642F0E943803CE01DF91CF91089573
:1006F000CF93DF931F92CDB7DEB7698361E0CE0160
:1007000001960E94380381E090E00F90DF91CF9135
:10071000089590E080E00895CF92DF92EF92FF92EB
:10072000A0913F02B091400220E83EEE46E350E047
:100730000E941B196B017C01A0914102B091420201
:1007400020E63AEE0E941419C60ED71EE81EF91EC6
:10075000209143023091440288EE93E0289FB0013B
:10076000299F700D389F700D1124072E000C880BE7
:10077000990BC60ED71EE81EF91EC0924B02D092EE
:100780004C02E0924D02F0924E020E941E02C60EF2
:10079000D71EE81EF91EC0924502D0924602E09292
:1007A0004702F0924802FF90EF90DF90CF900895BB
:1007B0008F929F92AF92BF92CF92DF92EF92FF9271
:1007C00080904B0290904C02A0904D02B0904E024F
:1007D000C501B40120E83EEE46E350E00E94F51862
:1007E0003093400220933F0220E6C22E2AEED22E02
:1007F000E12CF12CA70196010E94F51830934202DA
:1008000020934102C501B401A70196010E94F51889
:1008100028EE33E040E050E00E94F51830934402A7
:1008200020934302FF90EF90DF90CF90BF90AF9066
:100830009F908F90089580917B0290917C024897C1
:1008400024F010927C0210927B02809179029091A8
:100850007A02CC9724F010927A0210927902809159
:10086000770290917802CC9724F01092780210923F
:1008700077028091590290915A02089724F01092C1
:100880005A021092590280917502909176028097D7
:1008900024F010927602109275028091730290916A
:1008A00074020D9724F010927402109273028091DA
:1008B0007102909172028F3E974034F080ED97E084
:1008C000909372028093710208951F93CF93DF93E8
:1008D00060E0809134030E943E01C7E0D0E010E068
:1008E00061E0809133030E941001809134030E94E3
:1008F000E70099270C2E01C0880F0A94EAF7182BFD
:1009000060E0809133030E941001219748F7812F06
:10091000DF91CF911F9108950F931F93CF93DF9392
:10092000082F162FD42FC8E06D2F661F6627661F6D
:10093000802F0E941001DD0F61E0812F0E941001C5
:1009400060E0812F0E941001C15071F7DF91CF91BB
:100950001F910F9108951F93CF93DF93182FC3E337
:10096000D3E061E089810E943E0161E089810E94BB
:10097000100161E088810E94100160E089810E947D
:10098000100160E088810E941001412F68818981F7
:10099000DF91CF911F910C948C041F93CF93DF9321
:1009A000182FC3E3D3E061E089810E943E01412F0B
:1009B00068818981DF91CF911F910C948C04EF9213
:1009C000FF920F931F93CF93DF93CDB7DEB7289796
:1009D0000FB6F894DEBF0FBECDBF80913C038823D5
:1009E00009F49BC084EE8093BC008091BC0087FF1B
:1009F000FCCF80ED8093BB0084EC8093BC008091A1
:100A0000BC0087FFFCCF1092BB0084EC8093BC003D
:100A10008091BC0087FFFCCF84EE8093BC00809166
:100A2000BC0087FFFCCF81ED8093BB0084EC8093FA
:100A3000BC008091BC0087FFFCCFE5E3F3E08CE3D2
:100A400093E034EC3093BC002091BC0027FFFCCF36
:100A50002091BB0021938E179F07A1F784E8809314
:100A6000BC008091BC0087FFFCCF84E98093BC0070
:100A700040913503842F829587705AE04F70859F8F
:100A8000400D112430913603832F829587703F707B
:100A9000859F300D112460913703262F2F70862FEC
:100AA00090E067FF80C065FB882780F9FCE08F9F9E
:100AB000200D1124F09138035091390360913A03CD
:100AC00080913B03952F929597707AE05F70979F86
:100AD000500D1124E62FE295E7706F70E79F600DCF
:100AE0001124982F92959F708F70979F800D1124DD
:100AF00090E08053984F9F838E83782F8F819F2F14
:100B000028960FB6F894DEBF0FBECDBFDF91CF9110
:100B10001F910F91FF90EF90089580ED0E94AB041C
:100B20000E94B20180E00E94CD040E94B20181EDDA
:100B30000E94AB040E94B20175E3E72E73E0F72E2A
:100B400010E000E00E946504F70181937F01063008
:100B5000110531F161E0809134030E943E0160E0B3
:100B6000809133030E94100160E0809134030E9461
:100B7000100161E0809133030E94100160E08091D8
:100B800033030E94100160E0809134030E943E0113
:100B90000F5F1F4F07301105A9F60E947A0168CF39
:100BA0000E949401F5CF64E0959587956A95E1F7E9
:100BB0008370859F200D11247DCFCF93DF9390917B
:100BC0003C03992349F194EE9093BC009091BC00B2
:100BD00097FFFCCF90ED9093BB0094EC9093BC00FA
:100BE0009091BC0097FFFCCF8093BB0084EC809376
:100BF000BC008091BC0087FFFCCF6093BB0084ECFD
:100C00008093BC008091BC0087FFFCCF84E9809377
:100C1000BC00DF91CF910895C62FD82F80ED0E94A0
:100C2000AB040E94B2018D2F0E94CD040E94B2013C
:100C30008C2F0E94CD040E94B201DF91CF910C94C1
:100C40007A01CF9390913C03992309F441C094EE2B
:100C50009093BC009091BC0097FFFCCF90ED9093D7
:100C6000BB0094EC9093BC009091BC0097FFFCCF2C
:100C70008093BB0084EC8093BC008091BC0087FF14
:100C8000FCCF84EE8093BC008091BC0087FFFCCF3A
:100C900081ED8093BB0084EC8093BC008091BC000C
:100CA00087FFFCCF84EC8093BC008091BC0087FF61
:100CB000FCCFC091BB0084E88093BC008091BC0055
:100CC00087FFFCCF84E98093BC008C2FCF910895DF
:100CD000C82F80ED0E94AB040E94B2018C2F0E94AD
:100CE000CD040E94B20181ED0E94AB040E94B201CA
:100CF0000E946504C82F0E9494010E947A01E5CFEA
:100D0000CF93DF93EC0160E08E810E94100161E0DF
:100D10008E810E94100160E08E810E9410018BE89C
:100D200091E00197F1F7DF91CF910895CF92DF9293
:100D3000EF92FF920F931F93CF93DF936C017C018F
:100D400087E0E80EF11CD0E0C0E0062F10E0B8010B
:100D50000C2E02C0759567950A94E2F76170F70151
:100D600081917F010E9410012196C430D10579F74D
:100D7000C601DF91CF911F910F91FF90EF90DF900F
:100D8000CF900C948006CF92DF92EF92FF920F9358
:100D90001F93CF93DF93EC01F62E642F8C810E947A
:100DA00010018D818F3F19F060E00E9410010F2D1E
:100DB00010E08F8584FF25C06E0187E0C80ED11C2E
:100DC000F12CE12CB8010E2C02C0759567950A94A0
:100DD000E2F76170F60181916F010E941001FFEF4F
:100DE000EF1AFF0A88E0E816F10461F7CE01DF91FF
:100DF000CF911F910F91FF90EF90DF90CF900C94C7
:100E00008006B80184E0759567958A95E1F7CE0173
:100E10000E9496066F2DCE01DF91CF911F910F9109
:100E2000FF90EF90DF90CF900C94960640E0682FF3
:100E30008DE393E00C94C30681E00E9416078BE3D8
:100E40009FE10197F1F70895CF93DF93823029F462
:100E500090914C03986090934C03809350031092B0
:100E6000510380E48093520380E18093530380E533
:100E70008093540361E0809141030E943E01809180
:100E800042038F3F19F061E00E943E0161E08091D2
:100E900043030E943E01CDE3D3E09E012D53334036
:100EA00080914C0384FD0BC084E090E021962817CC
:100EB000390744F461E08E810E943E01EECF88E064
:100EC00090E0F4CF8BE39DE00197F1F760E0809133
:100ED00041030E94100160E0809143030E941001D1
:100EE000809142038F3F19F060E00E9410018091D1
:100EF0004C0384FD34C063E08DE393E00E949606CA
:100F0000CBE4D6E4CE010197F1F763E08DE393E003
:100F10000E9496062197F1F763E08DE393E00E942B
:100F2000960683E592E00197F1F762E08DE393E0A6
:100F30000E94960680914C0380620E94160784E00E
:100F400080934D038CE00E9416070E941C0782E0EC
:100F500080934E0386E0DF91CF910C941607806258
:100F60000E9416078BE496E40197F1F780914C03F9
:100F700080620E94160783E592E00197F1F7809165
:100F80004C0380620E941607D5CF909150036917D9
:100F900010F06FEF690FE62FF0E0E35CFC4F9489EF
:100FA000890F80680C94160741E00E94C30681E017
:100FB00090E008950F931F93CF93DF938B0128E068
:100FC000829FC001112480640E941607E801085F17
:100FD0001F4F69918DE393E00E94D407C017D1079A
:100FE000C1F7DF91CF911F910F9108950F931F9338
:100FF000CF93DF938C01D0E0C0E0F801EC0FFD1F30
:101000006491662339F041E08DE393E00E94C306CA
:101010002196F3CFCE01DF91CF911F910F910895CB
:10102000FC0101900020E9F73197AF01481B590BF3
:10103000BC018DE393E00C942A028F929F92AF92B1
:10104000BF920F931F93CF93DF93CDB7DEB7A197D6
:101050000FB6F894DEBF0FBECDBF19A2423008F420
:101060004AE08E010F5D1F4F842E912CB12CA12CD4
:10107000A50194010E94D318E62FB901CA01EA30F4
:10108000F4F4E05DD801EE938D01232B242B252B66
:1010900079F790E080E0109719F0CD010E941008D8
:1010A000A1960FB6F894DEBF0FBECDBFDF91CF91F2
:1010B0001F910F91BF90AF909F908F900895E95C22
:1010C000E1CFCF92DF92EF92FF926C01990FEE0881
:1010D000FF08F7FE16C041E06DE28DE393E00E9449
:1010E000C30666277727CB016C197D098E099F09F6
:1010F0004AE00E941D080196FF90EF90DF90CF908C
:1011000008954AE0C701B601FF90EF90DF90CF90BD
:101110000C941D080C94100890911801892F880FC9
:10112000890F60E08F5F0E94C5078CE491E00C940A
:101130008A0861E080E00E94C50780E991E00E9492
:101140008A0880913F02909140020A9724F48FE42C
:1011500091E00E948A0880913F02909140020E9493
:10116000610881E591E00E948A0880914102909196
:1011700042020A9724F48FE491E00E948A08809149
:101180004102909142020E94610881E591E00E9433
:101190008A0880914302909144020A9724F48FE4D4
:1011A00091E00E948A0880914302909144020E943B
:1011B000610880E991E00C948A080F931F93CF9304
:1011C000DF938C01EB01809125039091260300971A
:1011D00039F0209127033091280326173707B8F4F8
:1011E000BE016F5F7F4F0E94621A0097E1F09093FB
:1011F000260380932503D0932803C09327032091CF
:10120000290330912A03232B11F4FC011082D0937F
:101210002A03C0932903B8018091250390912603E6
:101220000E94281B14C080912503909126030097EB
:1012300011F00E94D91910922603109225031092E2
:101240002A0310922903109228031092270385E2A3
:1012500093E0DF91CF911F910F9108951F93CF934A
:10126000DF9385ED8093BC008091D1019091D201F4
:10127000A091D301B091D4010796A11DB11D23E027
:10128000B695A795979587952A95D1F72091BC009B
:1012900024FD03C01092190252C04091D101509117
:1012A000D2016091D3017091D401452B462B472B7D
:1012B00069F30097A105B10541F02AE22A95F1F7FB
:1012C00000C00197A109B109E1CF8091D001C1E02F
:1012D000C093CF01882399F1D091B8001091BA0042
:1012E0008091BC008A7B8093BC0060E082E10E9418
:1012F000100160E083E10E94100110921902C09376
:101300001B0210921A0261E082E10E94100161E06A
:1013100083E10E9410018091B9008E7F8093B90013
:101320008091B9008D7F8093B90088E48093B800E4
:1013300085E48093BC001093BA00D093B800DF918D
:10134000CF911F9108950C94AE176091670281E0D0
:1013500090E00E94A3096091650282E090E00E9403
:10136000A3096091630283E090E00E94A309609169
:101370006B0284E090E00E94A30960913F0285E047
:1013800090E00E94A3096091410286E090E00E94F3
:10139000A3096091430287E090E00C94A3090C94A8
:1013A000A6171F920F920FB60F9211242F933F93FF
:1013B0008F939F93AF93BF9380918002909181020E
:1013C000A0918202B091830230917F0223E0230F2B
:1013D0002D3758F50196A11DB11D20937F028093F2
:1013E000800290938102A0938202B0938302809145
:1013F000840290918502A0918602B09187020196A5
:10140000A11DB11D8093840290938502A093860252
:10141000B0938702BF91AF919F918F913F912F9190
:101420000F900FBE0F901F90189526E8230F02967D
:10143000A11DB11DD2CF1F920F920FB60F92112492
:101440002F933F934F935F936F937F938F939F93CC
:10145000AF93BF93EF93FF9388E892E00E94A802B6
:10146000FF91EF91BF91AF919F918F917F916F917C
:101470005F914F913F912F910F900FBE0F901F9052
:1014800018951F920F920FB60F9211242F938F93DE
:101490009F93EF93FF93E0919802F09199028081DE
:1014A000E0919E02F0919F0282FD1BC0908180918D
:1014B000A1028F5F8F732091A202821741F0E09109
:1014C000A102F0E0E857FD4F958F8093A102FF91B4
:1014D000EF919F918F912F910F900FBE0F901F90C2
:1014E00018958081F4CF1F920F920FB60F9211249E
:1014F0002F933F934F935F936F937F938F939F931C
:10150000AF93BF93EF93FF938091B900887F8036AC
:1015100009F44AC0F0F5883209F4A5C018F5803105
:1015200009F499C0B8F4882309F4F5C0883009F4A7
:1015300092C0FF91EF91BF91AF919F918F917F9159
:101540006F915F914F913F912F910F900FBE0F9030
:101550001F901895883109F486C0803251F7809326
:10156000180214C0803409F49BC040F48033B9F3EE
:101570008833F9F68093180285ECAEC0803509F403
:1015800083C0883509F494C0883499F60E942E09E6
:10159000D0CF883909F48AC038F5883729F050F45B
:1015A000883611F0803729F683E080931902109273
:1015B000170255C0883809F479C0803919F080388D
:1015C00009F0B7CF80911702803208F06FC0E09128
:1015D000170281E08E0F809317028091BB00F0E02C
:1015E000E950FE4F80833BC0803B39F0D0F4803A15
:1015F00009F477C0883A09F09CCF84E080931902FF
:101600001092F6011092F501F0E0E0E0099580916A
:10161000F50181110FC081E08093F5011092D50191
:1016200009C0803C09F4A8CF883C09F4A5CF883BC9
:1016300009F07FCFE091F60181E08E0F8093F601F3
:10164000F0E0EB52FE4F80818093BB009091F60159
:101650008091F50129C080913E028093BB0085EC0A
:101660008093BC0066CF90913D0280913C02981718
:1016700058F5E0913D0281E08E0F80933D02F0E04D
:10168000E45EFD4F8081E9CFE0913D0281E08E0F65
:1016900080933D028091BB00F0E0E45EFD4F8083CB
:1016A00090913D0280913C029817C8F285E8D8CF0E
:1016B000E0913D0281E08E0F80933D028091BB005E
:1016C000F0E0E45EFD4F808380911B0281115ECFCC
:1016D00081E080931A0284EA8093BC001092190280
:1016E00028CF85EC8093BC001092190280911702DC
:1016F000803230F4E0911702F0E0E950FE4F1082A2
:101700006091170270E087EF91E0F0E0E0E009956A
:10171000109217020ECF1092180238CFCF93E8E83C
:10172000F2E01382128288EE93E0A0E0B0E08483BE
:101730009583A683B78382E391E09183808385ECD0
:1017400090E09587848784EC90E09787868780EC8B
:1017500090E0918B808B81EC90E0938B828B82EC7C
:1017600090E0958B848B86EC90E0978B868B118E26
:10177000128E138E148EEDE3F3E01382128284E452
:1017800091E09183808382E084838FEF8583C3E03F
:10179000C68384E0878385E0808786E0818787E051
:1017A00082871386148615861686178681E00E9426
:1017B0002407E3E3F3E082E1818383E18083EBE2CA
:1017C000F3E08EED97E09683858381E084838383C5
:1017D000108211821282C783E5E2F3E01182108247
:1017E000138212821582148262E070E082E991E035
:1017F000CF910C94DD08CF93DF93CDB7DEB766971A
:101800000FB6F894DEBF0FBECDBF789484B582606A
:1018100084BD84B5816084BD85B5826085BD85B594
:10182000816085BD80916E00816080936E00109212
:10183000810080918100826080938100809181008D
:10184000816080938100809180008160809380001E
:101850008091B10084608093B1008091B00081607C
:101860008093B00080917A00846080937A008091A8
:101870007A00826080937A0080917A008160809300
:101880007A0080917A00806880937A001092C1007B
:10189000E0919802F091990282E08083E0919402B5
:1018A000F09195021082E0919602F09197028FECF0
:1018B00080831092A002E0919C02F0919D0286E04C
:1018C0008083E0919A02F0919B0280818061808305
:1018D000E0919A02F0919B02808188608083E09180
:1018E0009A02F0919B02808180688083E0919A0245
:1018F000F0919B0280818F7D8083809134038231BF
:1019000009F006C780913303833109F001C781E0F4
:1019100080933C0361E082E10E94100161E083E179
:101920000E9410018091B9008E7F8093B900809150
:10193000B9008D7F8093B9008CE08093B80085E07A
:101940008093BC0062E08EE00E943E0162E08FE086
:101950000E943E0162E080E10E943E0162E081E17E
:101960000E943E0161E088E00E943E0160E171E07A
:1019700081E00E94DA0768E071E082E00E94DA0705
:1019800060E071E083E00E94DA0782E00E942407B1
:1019900060E080E00E94C50783E591E00E948A082C
:1019A00061E080E00E94C50785E691E00E948A0818
:1019B00060ED77E080E090E00E94EC010E941C075F
:1019C00082E390E00E94CF0981110E94A50960E0A6
:1019D00082E390E00E94A30981E090E00E94CF0999
:1019E00090E0909368028093670282E090E00E940A
:1019F000CF0990E0909366028093650283E090E0C7
:101A00000E94CF0990E0909364028093630284E087
:101A100090E00E94CF0990E090936C0280936B025B
:101A200085E090E00E94CF0990E09093400280937F
:101A30003F0286E090E00E94CF0990E0909342023E
:101A40008093410287E090E00E94CF0990E090935C
:101A50004402809343020E948C030AE010E0222497
:101A60002394312C0E94DF0420932B0330932C030A
:101A700040932D0350932E0360932F0370933003F4
:101A800080933103909332038EE0E0E2F1E0DE01D7
:101A9000119601900D928A95E1F70E94DF042F873D
:101AA000388B498B5A8B6B8B7C8B8D8B9E8B292F24
:101AB0002150330BF901EE0FFF1F81E090E08C0FF6
:101AC0009D1FE80FF91F80819181009709F428C6B6
:101AD000FC0101900020E9F73197BF01681B790BE9
:101AE0000E94DD0880917D0290917E02892B59F53C
:101AF00080912B0390E090937C0280937B028091F5
:101B00002C0390E090937A028093790280912D03C8
:101B100090E0909378028093770280912E0390E07A
:101B2000909376028093750280912F0390E09093BA
:101B300074028093730280913003909131039093EB
:101B400072028093710280916F0290917002892BD2
:101B500009F02CC180916D0290916E02892B09F0E1
:101B600025C161E080E00E94C50780917B029091D1
:101B70007C02B8010E94BF18CB01B8010E94BF18B7
:101B80000E94610880917B0290917C02B8010E94C2
:101B9000BF180E94610881E591E00E948A08809147
:101BA000790290917A02B8010E94BF18CB01B80166
:101BB0000E94BF180E9461088091790290917A0278
:101BC000B8010E94BF180E94610881E591E00E945F
:101BD0008A088091770290917802B8010E94BF181C
:101BE000CB01B8010E94BF180E9461088091770262
:101BF00090917802B8010E94BF180E94610883E9A1
:101C000091E00E948A0880916B0290916C0201978A
:101C100009F09BC562E08DE393E00E94D40783E95D
:101C200091E00E948A0861E08DE393E00E94D4076E
:101C300081E10E942106F82E82E10E942106682F90
:101C400070E0E6E075956795EA95E1F7072E000CE0
:101C5000880B990B0E94891620E030E040E85EE393
:101C60000E94E8164B015C016F2D70E090E080E06F
:101C70000E9487169B01AC01C501B4010E940E1899
:101C80006B017C014B015C01AC019B010E94AE1811
:101C9000882309F45FC585E791E00E94100863E09E
:101CA0008DE393E00E94D40781E891E00E948A08C6
:101CB00082E991E00E948A0860E081E00E94C50705
:101CC0004091290350912A036091250370912603C6
:101CD0008DE393E00E942A0283E991E00E948A0842
:101CE0008091750290917602B8010E94BF18CB01D5
:101CF000B8010E94BF180E946108809175029091FE
:101D00007602B8010E94BF180E94610883E891E042
:101D10000E948A088091730290917402B8010E9417
:101D2000BF18CB01B8010E94BF180E9461088091C2
:101D3000730290917402B8010E94BF180E9461085A
:101D400083E891E00E948A0880917102909172026A
:101D500068EE73E00E94BF18CB01B8010E94BF1863
:101D60000E946108809171029091720264E670E0B5
:101D70000E94BF18CB01B8010E94BF180E946108E1
:101D80008091710290917202B8010E94BF18CB013C
:101D9000B8010E94BF180E94610880917102909161
:101DA0007202B8010E94BF180E94610880917D02F2
:101DB00090917E02089709F083C060E080E00E9465
:101DC000C50789EB90E00E94F60761E080E00E9481
:101DD000C50788EA90E00E94F60768EE73E080E0AD
:101DE00090E00E94EC0180917B02883158F5D09000
:101DF00079029BE39D1530F1E09077029E1510F17A
:101E00007AE0F72E6F2D0E94B3188295807F682F9D
:101E1000690F82E00E94DD058D2D6F2D0E94B318A1
:101E20008295807F682F690F81E00E94DD058E2DED
:101E30006F2D0E94B3188295807F682F690F80E014
:101E40000E94DD05E09075028FEF8E0D8F3190F5C9
:101E5000D09073028FEF8D0D8C3060F58091710200
:101E600090917202805D9740883E23E0920710F5C2
:101E70006AE0F62E6F2D0E94B3188295807F682F3E
:101E8000690F86E00E94DD058D2D6F2D0E94B3182D
:101E90008295807F682F690F85E00E94DD058E2D79
:101EA0006F2D0E94B3188295807F682F690F84E0A0
:101EB0000E94DD050E941C0710927E0210927D0296
:101EC00080916F0290917002059711F560E080E0BB
:101ED0000E94C50787E990E00E94F60761E080E074
:101EE0000E94C50786E890E00E94F6070E94A509B7
:101EF00060ED77E080E090E00E94EC010E941C071A
:101F00001092700210926F0230926A02209269025F
:101F1000E0906F02F09070021E141F0424F41092DF
:101F20006A02109269028EE00E94E700892BD1F4C8
:101F30008091610290916202892BA1F480916D02DF
:101F400090916E02892B71F43092620220926102AC
:101F50001E141F040CF053C485E090E090937002AF
:101F600080936F0281E10E94E700892BA9F580919F
:101F7000610290916202892B79F580915F029091C4
:101F80006002019779F480915D0290915E02019761
:101F900049F480916D0290916E02019690936E02C9
:101FA00080936D0280916D0290916E02892BA1F455
:101FB000309262022092610280917D0290917E02B5
:101FC000181619060CF025C428E030E030937E0284
:101FD00020937D020E941C078EE00E94E70001977B
:101FE00049F481E10E94E700019721F41092620216
:101FF000109261028FE00E94E700892B09F072C005
:10200000C0906F02D0907002C114D10439F5809154
:102010007D0290917E02892B09F580915F0290915B
:102020006002892BD9F43092600220925F02809185
:102030005D0290915E028130910581F490936E0271
:1020400080936D0225E030E030935C0220935B02C8
:1020500090931901809318010E941C0780916D02D2
:1020600090916E02892BE1F5E0907D02F0907E0266
:10207000C114D10409F531E0E316F10409F08BC570
:1020800080917B0290917C02019690937C028093D8
:102090007B0294E0E916F10409F4CFC325E0E216CF
:1020A000F10409F08BC5809175029091760201963A
:1020B0009093760280937502609159028FEF860F9C
:1020C000873018F483E00E94DD05EF2849F481E0B1
:1020D000C816D10409F081C5D0926C02C0926B027F
:1020E0000E941B0480E10E94E700892B09F072C066
:1020F000C0906F02D0907002C114D10439F5809164
:102100007D0290917E02892B09F580915D0290916C
:102110005E02892BD9F430925E0220925D0280919A
:102120005F02909160028130910581F490936E027C
:1021300080936D0225E030E030935C0220935B02D7
:1021400090931901809318010E941C0780916D02E1
:1021500090916E02892BE1F5E0907D02F0907E0275
:10216000C114D10409F531E0E316F10409F052C5B8
:1021700080917B0290917C02019790937C028093E6
:102180007B0294E0E916F10409F495C325E0E21618
:10219000F10409F052C58091750290917602019781
:1021A0009093760280937502609159028FEF860FAB
:1021B000873018F483E00E94DD05EF2849F481E0C0
:1021C000C816D10409F048C510926C0210926B0237
:1021D0000E941B0480915F0290916002019709F0B8
:1021E000E9C0C0905D02D0905E0291E0C916D104B2
:1021F00009F0E0C08EE00E94E7007C018FE00E94C1
:10220000E700EE0CFF1CEE0CFF1C9C01220F331F9D
:10221000820F931FE80EF91E80E10E94E700880FED
:10222000991FE80EF91E81E10E94E7008E0D9F1DA7
:102230009093580280935702A0905502B090560296
:102240008A30910509F425C5AB28C9F4D09256020D
:10225000C09255028730910509F46AC30CF05FC340
:102260002EE030E0069709F46CC30E941E026093D2
:102270004F027093500280935102909352020E9439
:10228000DF0420932B0330932C0340932D035093B2
:102290002E0360932F037093300380933103909348
:1022A000320380914B0290914C02A0914D02B0916B
:1022B0004E02181619061A061B06E4F4809149020C
:1022C00090914A02892BB1F4C0904502D090460209
:1022D000E0904702F09048020E941E02C61AD70AF8
:1022E000E80AF90AC0924B02D0924C02E0924D02E9
:1022F000F0924E0280915B0290915C02049709F08B
:102300004FC060E080E00E94C50788E690E00E9430
:10231000F60780914B0290914C02A0914D02B09132
:102320004E02181619061A061B06B4F180914902CE
:1023300090914A02892B81F530924A0220924902FB
:1023400010924B0210924C0210924D0210924E02CB
:1023500060E088E00E94100161E080E00E94C50713
:1023600085E790E00E94F60768EB7BE080E090E074
:102370000E94EC0161E088E00E94100125E030E05D
:1023800030935C0220935B0260E080E00E94C5070E
:1023900085E891E00E948A080E94D8030E9499086B
:1023A00080915B0290915C02059721F40E948C0859
:1023B0000E94990880916D0290916E02892B09F01C
:1023C00070C080917D0290917E02892B09F069C0D6
:1023D00080916F0290917002181619060CF061C07E
:1023E00060E080E00E94C50785E991E00E948A08CC
:1023F00080916B0290916C02892B09F0C9C38CE922
:1024000091E00E948A0861E084E00E94C507809103
:10241000670290916802B8010E94BF18CB01B80111
:102420000E94BF180E946108809167029091680223
:10243000B8010E94BF180E94610881E591E00E94E6
:102440008A088091650290916602B8010E94BF18C7
:10245000CB01B8010E94BF180E94610880916502FB
:1024600090916602B8010E94BF180E94610881E540
:1024700091E00E948A088091630290916402B80101
:102480000E94BF18CB01B8010E94BF180E946108CA
:102490008091630290916402B8010E94BF180E946B
:1024A000610864E670E080E090E00E94EC018091B9
:1024B0006D0290916E02892B09F0DCC080916F0251
:1024C00090917002892B71F480917D0290917E022F
:1024D000019741F461E080E00E94C50782E991E044
:1024E0000E948A0880916F0290917002892B71F48A
:1024F00080917D0290917E02029741F461E083E039
:102500000E94C50782E991E00E948A0880916F02CB
:1025100090917002892B71F480917D0290917E02DE
:10252000039741F461E086E00E94C50782E991E0EB
:102530000E948A0880916F0290917002892B71F439
:1025400080917D0290917E02049741F460E081E0E9
:102550000E94C50781E991E00E948A0880916F027C
:1025600090917002892B71F480917D0290917E028E
:10257000059741F460E085E00E94C50782E991E09B
:102580000E948A0880916F0290917002892B71F4E9
:1025900080917D0290917E02069741F460E088E090
:1025A0000E94C50782E991E00E948A0880916F022B
:1025B00090917002892B71F480917D0290917E023E
:1025C000079741F460E08BE00E94C50780E991E045
:1025D0000E948A0880917D0290917E02892B71F47D
:1025E00080916F0290917002019741F460E086E063
:1025F0000E94C50789E891E00E948A0880917D02C7
:1026000090917E02892B71F480916F0290917002FB
:10261000029741F461E084E00E94C50782E991E0FD
:102620000E948A0880917D0290917E02892B71F42C
:1026300080916F0290917002039741F461E087E00E
:102640000E94C50782E991E00E948A0880917D027C
:1026500090917E02892B71F480916F0290917002AB
:10266000049741F461E08AE00E94C50782E991E0A5
:102670000E948A088091690290916A02019789F507
:1026800080916B0290916C02019759F520917B0229
:1026900030917C0280916702909168022817390777
:1026A00001F52091790230917A0280916502909132
:1026B000660228173907A9F4209177023091780231
:1026C00080916302909164022817390754F060E00A
:1026D00088E00E9410016CE271E080E090E00E94CE
:1026E000EC0161E088E00E94100164E670E080E0A7
:1026F00090E00E94EC0180E090E0892B09F4B2C9DF
:102700000E949402882309F4ADC90E940000AAC95E
:1027100010923C0361E0809133030E943E0112C994
:102720008091250390912603009711F00E94D919FA
:10273000109226031092250310922A031092290367
:102740001092280310922703CDC983E991E00E94DB
:102750008A0865CA26013701E89477F82FEF3FEF22
:102760004FE75FE7C301B2010E94AE1881110DC0AF
:102770002FEF3FEF4FE75FE7C301B2010E948216E0
:1027800018161CF489E791E088CA2FEF3FEF4FE756
:102790005FE4C701B6010E94A91818161CF48DE762
:1027A00091E07BCA2FEF3FEF4FE75FECC701B60127
:1027B0000E94821687FDF3CF20E030E0A901C70117
:1027C000B6010E94821687FF0CC041E06DE28DE3E6
:1027D00093E00E94C30646015701B7FAB094B7F8D8
:1027E000B09420E030E040E05FE3C501B4010E9416
:1027F0000E180E947A184AE00E941D0850CA809163
:102800007D0290917E02019690937E0280937D02DC
:10281000A9CB80916F029091700201969093700203
:1028200080936F02D7CB8091790290917A020196C2
:1028300090937A02809379022CCC809159029091E6
:102840005A02019690935A028093590287E0E81643
:10285000F10409F031CC80917102909172020196DD
:10286000909372028093710227CC809167029091BD
:102870006802883191050CF033CC01969093680280
:10288000809367022DCC80916502909166028B3314
:1028900091050CF025CC0196909366028093650219
:1028A0001FCC8091790290917A02019790937A02DD
:1028B0008093790266CC8091590290915A020197D7
:1028C00090935A028093590287E0E816F10409F0C8
:1028D0006BCC809171029091720201979093720279
:1028E0008093710261CC8091670290916802181602
:1028F00019060CF06DCC01979093680280936702E3
:1029000067CC8091650290916602181619060CF04A
:102910005FCC0197909366028093650259CC883012
:10292000910569F0099709F0A0CC81E190E002C01F
:102930008FE090E0909354028093530296CC20E174
:1029400030E030935402209353028FCC8091530295
:10295000909154020F97029708F0C2C180914902EA
:1029600090914A0221E030E08130910511F430E08D
:1029700020E030934A02209349020197C1F40E945B
:102980001E02C0904B02D0904C02E0904D02F0909D
:102990004E02DC01CB018C0D9D1DAE1DBF1D809331
:1029A000450290934602A0934702B09348020E94CA
:1029B00099086CE271E080E090E00E94EC0190C127
:1029C00080915302909154028F309105A1F1A4F4AB
:1029D0000E9709F085C10E948C0324E030E030930B
:1029E0005C0220935B0210924A02109249023092DC
:1029F00019012092180174C18031910509F459C060
:102A0000419709F06DC180911801909119018330AF
:102A100091050CF084C001969093190180931801E0
:102A200060E080E00E94C50785E891E00E948A0886
:102A30000E948C0855C18091180190911901823033
:102A4000910529F18330910589F0019709F048C17A
:102A500080913F0290914002883491050CF040C172
:102A600001969093400280933F023AC180914302C5
:102A7000909144028B33910534F401969093440273
:102A8000809343022DC11092440210924302809120
:102A90004102909142028B33910534F40196909358
:102AA0004202809341021CC13092420220924102B4
:102AB000CFCF809118019091190182309105F9F0E2
:102AC0008330910569F0019709F00AC180913F02B6
:102AD00090914002181619060CF002C10197C1CF5F
:102AE00080914302909144021816190614F401973C
:102AF000C5CF8BE390E09093440280934302809192
:102B00004102909142021816190614F40197C7CF9A
:102B10002BE330E03093420220934102D7CF109252
:102B20006E0210926D021092600210925F0210927B
:102B30005E0210925D02D4C08091530290915402C3
:102B40000F97029708F0D0C034E0E316F10409F0C3
:102B5000CBC0B0924A02A092490210924B0210924E
:102B60004C0210924D0210924E020E94D8030E9415
:102B70008C0385E090E090935C0280935B0260E0C0
:102B800080E00E94C50785E891E00E948A08ACC0F9
:102B900087EA91E036CC32E0E316F10409F443CE43
:102BA00083E0E816F10409F074CA809177029091ED
:102BB00078020196909378028093770236E0E316CC
:102BC000F10409F043CE8091730290917402019652
:102BD00090937402809373026FCA92E0C916D10475
:102BE00009F443CE23E0C216D10409F44CCE84E0AC
:102BF000C816D10409F074CA8091630290916402EE
:102C00008B3391050CF06CCA01969093640280930B
:102C1000630266CA32E0E316F10409F442CE83E0AF
:102C2000E816F10409F0ADCA80917702909178021C
:102C30000197909378028093770236E0E316F104CF
:102C400009F042CE809173029091740201979093A3
:102C5000740280937302A8CA92E0C916D10409F4E1
:102C600042CE23E0C216D10409F44BCE94E0C9163B
:102C7000D10409F0ADCA80916302909164021816E4
:102C800019060CF0A5CA0197909364028093630221
:102C90009FCA31E0A316B10409F0F1CAE0905B02CB
:102CA000F0905C020E941E0240904F025090500231
:102CB0006090510270905202641975098609970953
:102CC00060327340810591050CF036CF34E0E31695
:102CD000F10409F43BCE85E0E816F10409F470CE66
:102CE0001092540210925302109256021092550202
:102CF000C6CA8091250390912603009711F00C9489
:102D0000D91908950E94C41608F481E00895E89442
:102D100009C097FB3EF490958095709561957F4F23
:102D20008F4F9F4F9923A9F0F92F96E9BB279395D1
:102D3000F695879577956795B795F111F8CFFAF4E1
:102D4000BB0F11F460FF1BC06F5F7F4F8F4F9F4F12
:102D500016C0882311F096E911C0772321F09EE870
:102D6000872F762F05C0662371F096E8862F70E0D6
:102D700060E02AF09A95660F771F881FDAF7880FB0
:102D80009695879597F90895990F0008550FAA0B06
:102D9000E0E8FEEF16161706E807F907C0F012166E
:102DA0001306E407F50798F0621B730B840B950B71
:102DB00039F40A2661F0232B242B252B21F40895C6
:102DC0000A2609F4A140A6958FEF811D811D089563
:102DD0000E94FB160C946C170E945E1738F00E943C
:102DE000651720F0952311F00C9455170C945B1780
:102DF00011240C94A0170E947D1770F3959FC1F3C6
:102E0000950F50E0551F629FF001729FBB27F00D98
:102E1000B11D639FAA27F00DB11DAA1F649F6627ED
:102E2000B00DA11D661F829F2227B00DA11D621F3C
:102E3000739FB00DA11D621F839FA00D611D221FF6
:102E4000749F3327A00D611D231F849F600D211DDA
:102E5000822F762F6A2F11249F5750409AF0F1F05D
:102E600088234AF0EE0FFF1FBB1F661F771F881FC6
:102E700091505040A9F79E3F510580F00C94551792
:102E80000C94A0175F3FE4F3983ED4F386957795B2
:102E90006795B795F795E7959F5FC1F7FE2B880F6C
:102EA000911D9695879597F9089597F99F6780E802
:102EB00070E060E008959FEF80EC089500240A948C
:102EC0001616170618060906089500240A94121605
:102ED0001306140605060895092E0394000C11F438
:102EE000882352F0BB0F40F4BF2B11F460FF04C0E5
:102EF0006F5F7F4F8F4F9F4F089557FD9058440F3E
:102F0000551F59F05F3F71F04795880F97FB991F48
:102F100061F09F3F79F08795089512161306140605
:102F2000551FF2CF4695F1DF08C016161706180692
:102F3000991FF1CF86957105610508940895E8946D
:102F4000BB2766277727CB0197F90895F999FECF1C
:102F500092BD81BDF89A992780B50895262FF999D9
:102F6000FECF1FBA92BD81BD20BD0FB6F894FA9A6C
:102F7000F99A0FBE019608950E94FE17A59F900D25
:102F8000B49F900DA49F800D911D112408952F9240
:102F90003F924F925F926F927F928F929F92AF92E9
:102FA000BF92CF92DF92EF92FF920F931F93CF9336
:102FB000DF93CDB7DEB7CA1BDB0B0FB6F894DEBFCD
:102FC0000FBECDBF09942A88398848885F846E84F3
:102FD0007D848C849B84AA84B984C884DF80EE803D
:102FE000FD800C811B81AA81B981CE0FD11D0FB646
:102FF000F894DEBF0FBECDBFED010895A29FB001D2
:10300000B39FC001A39F700D811D1124911DB29F1C
:10301000700D811D1124911D08955058BB27AA27BA
:103020000E9425180C946C170E945E1738F00E94BD
:10303000651720F039F49F3F19F426F40C945B17C0
:103040000EF4E095E7FB0C945517E92F0E947D17CD
:1030500058F3BA17620773078407950720F079F4CD
:10306000A6F50C949F170EF4E0950B2EBA2FA02D09
:103070000B01B90190010C01CA01A0011124FF2725
:10308000591B99F0593F50F4503E68F11A16F04020
:10309000A22F232F342F4427585FF3CF469537951F
:1030A0002795A795F0405395C9F77EF41F16BA0BE4
:1030B000620B730B840BBAF09150A1F0FF0FBB1F92
:1030C000661F771F881FC2F70EC0BA0F621F731FDB
:1030D000841F48F4879577956795B795F7959E3F38
:1030E00008F0B0CF9395880F08F09927EE0F9795C9
:1030F000879508950E94851788F09F5798F0B92FFB
:103100009927B751B0F0E1F0660F771F881F991F1C
:103110001AF0BA95C9F714C0B13091F00E949F1708
:10312000B1E008950C949F17672F782F8827B85F18
:1031300039F0B93FCCF3869577956795B395D9F774
:103140003EF490958095709561957F4F8F4F9F4F7E
:1031500008950E94C41608F48FEF08950E94C416C3
:10316000880B990B0895991B79E004C0991F961755
:1031700008F0961B881F7A95C9F78095089597FBEC
:10318000072E16F4009407D077FD09D00E9423196A
:1031900007FC05D03EF4909581959F4F089570955A
:1031A00061957F4F0895A1E21A2EAA1BBB1BFD015A
:1031B0000DC0AA1FBB1FEE1FFF1FA217B307E40716
:1031C000F50720F0A21BB30BE40BF50B661F771F6E
:1031D000881F991F1A9469F760957095809590954E
:1031E0009B01AC01BD01CF010895052E97FB1EF494
:1031F00000940E940C1957FD07D00E94D31807FCB9
:1032000003D04EF40C940C195095409530952195AF
:103210003F4F4F4F5F4F0895909580957095619502
:103220007F4F8F4F9F4F08950E94FE17B7FF08955D
:10323000821B930B0895B7FF0C94BC170E94BC1718
:10324000821B930B0895AA1BBB1B51E107C0AA1F49
:10325000BB1FA617B70710F0A61BB70B881F991F37
:103260005A95A9F780959095BC01CD010895EE0F70
:10327000FF1F0590F491E02D09940F931F93CF93B6
:10328000DF938230910510F482E090E0E0915703E3
:10329000F091580330E020E0B0E0A0E0309799F4DE
:1032A0002115310509F44AC0281B390B243031059A
:1032B000D8F58A819B816115710589F1FB019383A2
:1032C0008283FE0111C04081518102811381481720
:1032D0005907E0F04817590799F4109761F01296D2
:1032E0000C93129713961C933296CF01DF91CF91D6
:1032F0001F910F9108950093570310935803F4CF33
:103300002115310551F04217530738F0A901DB01AF
:103310009A01BD01DF01F801C1CFEF01F9CF909310
:10332000580380935703CDCFFE01E20FF31F819323
:1033300091932250310939832883D7CF20915503A7
:1033400030915603232B41F420911C0130911D0133
:10335000309356032093550320911A0130911B019D
:103360002115310541F42DB73EB740911E01509112
:103370001F01241B350BE0915503F0915603E21712
:10338000F307A0F42E1B3F0B2817390778F0AC0188
:103390004E5F5F4F2417350748F04E0F5F1F509365
:1033A000560340935503819391939FCFF0E0E0E063
:1033B0009CCFCF93DF930097E9F0FC013297138203
:1033C0001282A0915703B0915803ED0130E020E044
:1033D0001097A1F420813181820F931F2091550312
:1033E000309156032817390709F061C0F09356034E
:1033F000E0935503DF91CF910895EA01CE17DF07DF
:10340000E8F54A815B819E0141155105B1F7E9015B
:10341000FB83EA8349915991C40FD51FEC17FD072F
:1034200061F4808191810296840F951FE90199834F
:103430008883828193819B838A83F0E0E0E0129607
:103440008D919C9113970097B9F52D913C9111970F
:10345000CD010296820F931F2091550330915603A0
:103460002817390739F6309751F510925803109202
:103470005703B0935603A0935503BCCFD383C283A5
:1034800040815181840F951FC817D90761F44E5FA1
:103490005F4F88819981480F591F518340838A81EA
:1034A0009B81938382832115310509F0B0CFF0937E
:1034B0005803E09357039ECFFD01DC01C0CF138278
:1034C0001282D7CFB0E0A0E0E8E6FAE10C94C91789
:1034D0008C01009751F4CB010E943D198C01C80169
:1034E000CDB7DEB7E0E10C94E517FC01E60FF71F5E
:1034F0009C0122503109E217F30708F49DC0D9015D
:10350000CD91DC911197C617D70798F0C530D1053A
:1035100030F3CE0104978617970708F3C61BD70B25
:103520002297C193D1936D937C93CF010E94D919B7
:10353000D6CF5B01AC1ABD0A4C018C0E9D1EA0912A
:103540005703B0915803512C412CF12CE12C1097CA
:1035500031F580915503909156038815990509F02E
:103560005CC04616570608F058C080911A01909129
:103570001B01009741F48DB79EB740911E015091F9
:103580001F01841B950BE817F90708F055C0F0934D
:103590005603E0935503F90171836083A0CF8D91A9
:1035A0009C91119712966C90129713967C9013979A
:1035B000A815B90559F56C0142E0C40ED11CCA1416
:1035C000DB0420F1AC014A195B09DA011296159768
:1035D00080F06282738251834083D9016D937C9322
:1035E000E114F10471F0D7011396FC93EE93129756
:1035F00076CF22968C0F9D1FF90191838083F30172
:10360000EFCFF0935803E093570369CF481659065C
:1036100008F42C017D01D3019ACFCB010E943D1902
:103620007C01009749F0AE01B8010E941F1BC80140
:103630000E94D919870153CF10E000E050CFFB0161
:10364000DC0102C001900D9241505040D8F708951E
:10365000FB01DC0101900D920020E1F7089510E0DC
:10366000C3E9D0E004C0FE010E9437192196C43995
:08367000D107C9F7F894FFCF60
:103678000E0A0E0000000000040E0E0E0E1F0804B5
:10368800040A0A0E1F1B0E0E0100000059038000D9
:10369800B201B601BA01BE01C201C601CA010000E9
:1036A8000000CA022A0257021703880266027A0239
:1036B80000000000D4072A02890337035F5F003047
:1036C800003A00205265616C2054696D6520436C96
:1036D8006F636B20005769746820416C61726D20BC
:1036E80026204344006E616E00696E66006F766640
:1036F8000043002F002020202020202020202020F0
:103708002020202000416C61726D200044656163B7
:10371800746976617465004163746976617465647F
:1037280020004D6F6E00547565005765640054683D
:0E3738007500467269005361740053756E008F
:00000001FF
